:020000040800F2
:10000000305E00209D02000881140008210F0008C6
:100010007D1400083D0B0008BB2E00080000000006
:10002000000000000000000000000000191E000891
:10003000410B00080000000045150008551F00088E
:10004000B7020008B7020008B7020008B51C000894
:10005000B7020008B7020008B7020008B70200089C
:10006000B7020008B7020008B7020008B70200088C
:10007000B7020008B7020008B7020008B70200087C
:10008000B7020008B7020008B7020008B70200086C
:10009000B7020008B7020008B7020008B70200085C
:1000A000B7020008B7020008B7020008B70200084C
:1000B000B7020008B7020008B7020008B70200083C
:1000C000B7020008B7020008B7020008B70200082C
:1000D000B7020008B52B0008B7020008B7020008F5
:1000E000B702000869170008B7020008B702000845
:1000F000B7020008B7020008B7020008B7020008FC
:10010000B7020008B7020008B7020008B7020008EB
:10011000B7020008B7020008B7020008B7020008DB
:10012000B7020008B7020008B7020008B7020008CB
:10013000B7020008B7020008B7020008B7020008BB
:10014000B7020008B7020008B7020008B7020008AB
:10015000B7020008B7020008B7020008B70200089B
:10016000B7020008B7020008B7020008B70200088B
:10017000B7020008B7020008B7020008B70200087B
:10018000B7020008B7020008DFF80CD000F08CFBC3
:10019000004800479D500008305E0020EFF31480B7
:1001A00040F0020080F314887047EFF3148020F0D1
:1001B000010080F314887047EFF3148040F00100D1
:1001C00080F31488704772B6704762B6704772B693
:1001D0006C46D3F800D04FF0000520B490B04FF03B
:1001E000807520B402B404B44FF0000204B404B427
:1001F00004B404B401B4694681F30988A5464FF0FC
:1002000000044FF000054FF000064FF000074FF0DC
:1002100000084FF000094FF0000A4FF0000B62B6E3
:10022000BDE8014001BD6A46D0F800D0EFF314816B
:1002300041F0020181F314889546C0F800D0704760
:1002400072B66946D0F800D0BDE8F00FBDEC108A58
:10025000684680F309888D4662B6BDE8014001BD5D
:1002600072B66A46EFF309818D462DED108A2DE9AD
:10027000F00FC0F800D0954662B6704762B600DF56
:1002800070472DE9FF1F7047BDE8FF1F7047EFF370
:10029000148040F0040080F31488704706488047BB
:1002A00006480047FEE7FEE7FEE7FEE7FEE7FEE75B
:1002B000FEE7FEE7FEE7FEE7C11F00088901000830
:1002C0002DE9F0410024061B254671F1000605DAF0
:1002D00001240027D0EB070067EB0101161E73F124
:1002E000000605DA0027D2EB0702012567EB0303BE
:1002F00000F01AFA86460E4617469C46AC4204D0D9
:100300000025D0EB050E65EB010624B10020D2EBF1
:10031000000760EB030C704631463A466346BDE881
:10032000F08140EA01039B0703D009E008C9121FCE
:1003300008C0042AFAD203E011F8013B00F8013B9F
:10034000521EF9D270472DE9FE4F804681EA030024
:10035000C00F0C46009021F0004123F00045B8EB9F
:100360000200A94105D24046214690461C460B4654
:10037000024623F00040104347D0270DC7F30A0080
:10038000C3F30A510290401A019040286BDAC3F37C
:10039000130040F4801B0098924620B10023D2EB5A
:1003A000030A63EB0B0B01985946C0F1400250461B
:1003B00000F0EBF906460D4650465946019A00F00A
:1003C00003FA10EB08006141002487EA115284EA25
:1003D000E7731A4340D0009A62B3019A012A4FEAA8
:1003E000075215DC001B61EB02014FF0004202EAEC
:1003F0000752CDE90042001C41F5801132462B46E0
:1004000000F003FA03B0BDE8F08F40462146F9E75B
:10041000001B61EB0201001C41F5801300185B41D9
:100420002018A2F5001747EB030140EAD570B61972
:100430006D4111E06D084FEA360645EAC0754FEA96
:100440000752001B61EB0201001C41F580114908B5
:100450004FEA30000019514132462B4603B0BDE847
:10046000F04F00F0C3B90098012240000023D0EB08
:10047000020263EBE073009821464FEAE074B8EBA8
:10048000000061EB0401E9E783F000435BE781F0E2
:10049000004158E72DE9FE4F81EA030404F00044CF
:1004A00021F0004100944FF0000B23F0004350EA8C
:1004B00001045ED052EA03045BD0C3F30A54C1F3D3
:1004C0000A552C44A4F2F3340194A0FB0254C1F366
:1004D000130141F48011C3F3130343F4801301FBB0
:1004E000024400FB034E840A970A44EA815447EA17
:1004F0008357A4FB076802958D0A05FB07854FEA21
:10050000932C04FB0C542705029D4FEA065847EA3A
:100510001637B5EB08056EEB070C870E920E47EA0F
:10052000811742EA8312A7FB0201B6EB0B0164EBD1
:1005300000042B0D43EA0C335E1844EB1C50DA46E2
:100540005146E7FB0201C5F313044FEA0B3343EABC
:1005500014534FEA0432019C43EA0603A4F10C044D
:100560000294009CCDE900B400F04FF903B0BDE85F
:10057000F08F00200146F9E72DE9F04D81EA0304F0
:1005800004F0004B21F0004514464FF0000A23F020
:10059000004150EA050220D054EA01021DD0C5F303
:1005A0000A570246C5F31303C1F31300C1F30A56F9
:1005B00040F4801543F48013A7EB0608101BD646C1
:1005C00008F2FD3873EB050002D308F1010801E0E1
:1005D00092185B41B8F1000F03DA00200146BDE834
:1005E000F08D00204FF48011064684460EE0171B64
:1005F00073EB050705D3121B63EB050306434CEAB7
:10060000010C49084FEA300092185B4150EA01079B
:10061000EDD152EA030012D082EA040083EA050118
:10062000084305D0101BAB4106D20122002306E08F
:1006300000224FF0004302E06FF0010253101AEB6A
:1006400006004CEB085110EB0A0041EB0B01BDE832
:10065000F04D00F0CBB80EB5C10F80EAE070084451
:10066000CA07002140F233438DE80E000A460B46CC
:1006700000F0CBF803B000BD0EB540F2334102915B
:100680000021CDE900110A460B4600F0BEF803B088
:1006900000BD70B5C1F30A5201F000450024C1F35A
:1006A000130140F2FF3341F480119A4201DA002035
:1006B00070BD40F233439A42A2F2334203DC52420D
:1006C00000F072F800E090402C43F1D0404270BD41
:1006D000C1F30A5210B5C1F3130140F2FF3341F4E4
:1006E00080119A4201DA002010BD40F233439A4251
:1006F000A2F2334203DC524200F056F810BD9040A3
:1007000010BD00F0004230F000400AD0C10D01F5EC
:100710006071C0F3160042EA0151C208400711435C
:1007200070470020014670472DE9F05F0546002024
:1007300092469B4688460646814640241BE0284652
:1007400041464746224600F02FF853465A46C01A03
:10075000914110D311461846224600F016F82D1A82
:1007600067EB01084F4622460120002100F00DF8FA
:1007700017EB00094E41201EA4F10104DFDC4846BE
:1007800031462A464346BDE8F09F202A04DB203A42
:1007900000FA02F1002070479140C2F1200320FAD4
:1007A00003F3194390407047202A04DB203A21FAD2
:1007B00002F00021704721FA02F3D040C2F120027A
:1007C0009140084319467047202A06DBCB17203A90
:1007D00041FA02F043EAE07306E041FA02F3D04046
:1007E000C2F12002914008431946704710B5141E0B
:1007F00073F1000408DA401C41F1000192185B41DA
:100800001A4301D120F0010010BD2DE9F04D9246B0
:100810009B4611B1B1FA81F202E0B0FA80F22032C7
:100820009046FFF7B2FF04460F4640EA0A0041EA4D
:100830000B0153465A46084313D0114653EA0100B0
:1008400019D0C8F140025046FFF7AEFF05460E46EC
:10085000504659464246FFF798FF084305D001200D
:1008600004E020463946BDE8F08D0020054346EA05
:10087000E0762C4337430A986305E40AA0EB0800AE
:100880000022FD0A44EA47540A3002D500200146FE
:10089000E9E7010510196941DDE9084500196941D9
:1008A000BDE8F04DA2E70000064C074D06E0E06809
:1008B00040F0010394E8070098471034AC42F6D3A7
:1008C000FFF766FC28AF000848AF0008064C00BFE1
:1008D000246804F08054704772B603484FF080518A
:1008E000016062B6704700BF04ED00E008B404B4D4
:1008F00002B401B44FF0000168462DE9F05F0F4AE1
:10090000904700BF00BFBDE8F05F01BC02BC04BC63
:1009100008BC704708B404B402B401B44FF001013C
:1009200068462DE9F05F054A904700BF00BFBDE86B
:10093000F05F01BC02BC04BC08BC70472363000824
:1009400021B1826842F00102826003E0826822F0F5
:1009500001028260704700000021084A1168084ABD
:100960001140D0E900231A4383681A43C3681A432D
:100970001143044AC2F804137047000004230140E5
:10098000E030FCFF002001400146C86C80B2704797
:100990000246002013680B400BB1012000E000204C
:1009A0007047000030B50246002000235068104C0C
:1009B00020400D790C6844EA05242043506090687B
:1009C0000C4C2040D1E903542C438D682C434D79C5
:1009D00044EA450420439060D06A20F470000C7D06
:1009E000641EE4B2234340EA0350D06230BD0000ED
:1009F000FFFEFFFCFDF7FFC0F0B504460D460020EA
:100A00000021092D11DDE068A5F10A0606EB460775
:100A1000072606FA07F18843A5F10A0606EB460603
:100A200003FA06F10843E0600CE0206905EB450796
:100A3000072606FA07F1884305EB450603FA06F197
:100A400008432061072A0FDA606B561E06EB860703
:100A50001F2606FA07F18843561E06EB860605FA9E
:100A600006F10843606322E00D2A0FDA206BD61FDF
:100A700006EB86071F2606FA07F18843D61F06EB0A
:100A8000860605FA06F10843206310E0E06AA2F149
:100A90000D0606EB86071F2606FA07F18843A2F12A
:100AA0000D0606EB860605FA06F10843E062F0BD86
:100AB000816841F0804181607047000038B1084989
:100AC000096841F40001074AC2F8041306E004492A
:100AD000096821F40001034AC2F8041370470000BA
:100AE000042301400020014000B58BB00121080221
:100AF00000F05CFD0120FFF7E1FF002007900A9065
:100B000009904FF48030089007A8FFF725FF0020D8
:100B100001908DF808008DF80900039005900120E0
:100B20008DF8180001A90448FFF73CFF0121024895
:100B3000FFF706FF0BB000BD0020014000BFFEE73D
:100B4000704700000149086070470000143C0140F4
:100B5000002123498279002A3AD00A4612680368A4
:100B60009A430B461A600A1D126803689A430B1DCC
:100B70001A60027911440A6803681A430A60184A25
:100B80000832126803689A43154B08331A601A1D1D
:100B9000126803689A43124B0C331A604279102A88
:100BA0000ED11A1F126803681A430D4B08331A60DE
:100BB0001A1D126803681A43094B0C331A600DE0C2
:100BC0000749427911440A6803681A430A6005E03C
:100BD000027911440A6803689A430A60704700006A
:100BE000003C014051B18200A2F1C042126842F0C3
:100BF00001038200A2F1C042136009E08200A2F169
:100C0000C0421268034B1A408300A3F1C0431A602C
:100C100070470000FEFF0F0030B5002100220023C6
:100C20000468A400A4F1C0442168444C2140D0E9E8
:100C300001452C43C5682C4305692C4345692C4369
:100C400085692C43C5692C43056A2C43456A2C43AE
:100C5000856A2C43C56A2C43056B2C4321430468E9
:100C6000A400A4F1C04421608468082C0BD104685E
:100C7000A400A4F1C044246844F040050468A40022
:100C8000A4F1C04425600468641CA400A4F1C0441D
:100C9000226802F04042446B2468456B6D6844EA68
:100CA0000514456BAD6844EA0524456BAD8944EAFB
:100CB0000544456B2D8A44EA0554456B2D7D44EA75
:100CC0000564456BAD692C4322430468641CA40091
:100CD000A4F1C0442260C46AB4F5804F24D10468F2
:100CE000A400A4F1C044D4F8043103F04043846B61
:100CF0002468856B6D6844EA0514856BAD6844EA29
:100D00000524856B2D8A44EA0554856B2D7D44EAC4
:100D10000564856BAD692C4323430468A400A4F1EA
:100D2000C044C4F8043107E06FF070450468A400C3
:100D3000A4F1C044C4F8045130BD00008000F7FFA6
:100D4000F0B50A4600210023002400BF3DE0012544
:100D500005FA01F3156805EA03049C4234D10568DD
:100D60004F000326BE40B543056015794E00B540DF
:100D70000668354305601579012D02D01579022DDD
:100D800016D185684F000326BE40B543856055796E
:100D90004E00B540866835438560456801268E4023
:100DA000B5434560456896798E40B6B23543456097
:100DB000C5684F000326BE40B543C560D5794E00D7
:100DC000B540C6683543C560491C1029BFD3F0BD86
:100DD000F0B5002300244D07ED0E02FA05F3CE1006
:100DE00000F1200555F826504E07F70E0F26BE409D
:100DF000B543CF1000F1200646F82750CE1000F181
:100E0000200555F8265045EA0304CE1000F12005D0
:100E100045F82640F0BD0183704700002DE9F04100
:100E200005460C4600260723012229460F48FFF7F6
:100E3000E3FD002712E00D48FFF73AFE00BF022154
:100E40000A48FFF7A5FD0028F9D00848FFF79CFDE8
:100E50000644052005F066F9781CC7B2A742EADB14
:100E6000B6FBF4F080B2BDE8F08100000020014044
:100E700010B52DED088B0A211020FFF7CFFF08EEEB
:100E8000100AB8EE480A10EE100AFFF73AFC41ECDF
:100E90001A0B9FED190B53EC102BFFF7FBFA41ECEB
:100EA000190B9FED170B53EC102B51EC190BFFF79F
:100EB000EBFA41EC1B0B9FED140B53EC102BFFF7DF
:100EC0005BFB41EC1A0B9FED120B53EC102BFFF761
:100ED0003AFA41EC190B9FED100B53EC102B51EC2F
:100EE000190BFFF7D7FA41EC1A0BFFF7D2FB0446B8
:100EF0002046BDEC088B10BD6666666666664A3F96
:100F000052B81E85EB51E83F7B14AE47E17A643F4F
:100F100000000000000039400000000000005940BF
:100F200010B500BF05480068826A0448006841683F
:100F300003A0FFF7DBFC00BF10BD00003C00002059
:100F4000486172644661756C743AC3FBB3C6CEAA3D
:100F50002573B5C4C8CECEF1B7A2C9FAA1B0D3B239
:100F6000BCFEB4EDCEF3A1B1D2ECB3A32CB3CCD084
:100F7000F2D2ECB3A3B5E33A25580A0070B50646A1
:100F80000F484088401E83B20D480088401E82B240
:100F90000021084600F0BBF800240CE0002504E026
:100FA000304600F039FA681C85B205484088A842EE
:100FB000F6DC601C84B202480088A042EEDC70BD02
:100FC0002000002000B502460F4882716AB9362021
:100FD00000F016FA002000F019FA4FF4F0700A49F8
:100FE00048804FF4A07008800CE0362000F008FA2A
:100FF000602000F00BFA4FF4A070034948804FF4D2
:10100000F070088000BD00002000002070B504468C
:101010000D4616462B4622462946204600F077F814
:10102000304600F0F9F970BD2DE9FF4F84B08146DC
:101030008A460020039002900698A0EB09050798C5
:10104000A0EB0A06CDF80490CDF800A0002D01DD3C
:10105000012705E00DB9002702E04FF0FF376D4290
:10106000002E02DD4FF0010806E016B94FF000082F
:1010700002E04FF0FF387642B54201DD2C4600E039
:1010800034464FF0000B21E0009A91B2019A90B2E1
:1010900000F022F80398284403900298304402900C
:1010A0000398A04205DD0398001B03900198384483
:1010B00001900298A04205DD0298001B0290009862
:1010C000404400900BF101001FFA80FB601C834537
:1010D000DADD08B0BDE8F08F30B504460D462B468A
:1010E00022462946204600F012F80248008800F007
:1010F00093F930BD1C00002010B50246012000E02D
:1011000050430B1EA1F10104E1B2F9D110BD70B53D
:1011100004460D462A2000F073F92646E11704EB39
:101120001161C1F30F2000F071F9E11704EB1161B7
:101130000912A4EB012188B200F068F91646D11714
:1011400002EB1161C1F30F2000F060F91646D117D0
:1011500002EB11610912A2EB012188B200F056F9ED
:101160002B2000F04DF92E46E91705EB1161C1F374
:101170000F2000F04BF9E91705EB11610912A5EBFF
:10118000012188B200F042F91E46D91703EB116124
:10119000C1F30F2000F03AF91E46D91703EB116195
:1011A0000912A3EB012188B200F030F92C2000F0E5
:1011B00027F970BD2DE9F84F80460E4617461C46AC
:1011C000B3462046E31704EB5373DB1021464FEA86
:1011D000E47C04EB5C7C4FEAEC0CA4EBCC0CBCF1A3
:1011E000000F02D04FF0010C01E04FF0000C6344FF
:1011F000224604EBD27C4FEA6C0C03FB0CF3DBB20F
:101200000093A7F12000C7B2002556E00C2C07D1AF
:1012100007EB47002B4901EB800010F8059013E025
:10122000102C05D1284800EB071010F805900BE0B2
:10123000182C07D107EBC700244901EB800010F8F8
:10124000059001E0BDE8F88F4FF0000A2FE009F0AB
:10125000800030B11E48028831464046FFF7D6FE76
:1012600007E00A9828B91B48028831464046FFF734
:10127000CDFE4FEA49604FEA1069701C86B21648ED
:101280004088B04200DCDDE7A6EB0B00A0420AD1AB
:101290005E4608F101001FFA80F80F4800884045BB
:1012A00000DCCFE706E00AF1010000F0FF0ABAF126
:1012B000080FCCDB00BF681CC5B200988542A5DBD7
:1012C00000BFBFE7EC64000860690008506F0008C9
:1012D0001C0000201E000020200000202DE9F847FF
:1012E00004460D4690469946DDE9096704F0FF0A79
:1012F00008EB04001FFA80F809EB05001FFA80F9DB
:1013000016E0444502DB5446A81985B24D4500DB82
:1013100014E0002000903A78334629462046FFF733
:1013200049FF304606EBD07104EB61018CB27F1CA3
:1013300038787E2802DC38782028E2DA00BFBDE861
:10134000F8872DE9FF4F82B0064692461F46DDE939
:101350000F480020019000254DE0781B401EC1B2CF
:101360000A20FFF7C9FEBAFBF0F00A21B0FBF1F248
:1013700001FB1209019850BB781EA84227DDB9F184
:10138000000F22D108F0800078B108F00100A346D8
:1013900004EBDB71491001FB0561009088B2234624
:1013A00030220399FFF706FF0EE008F00100A34684
:1013B00004EBDB71491001FB0561009088B2234604
:1013C00020220399FFF7F6FE13E00120019008F0B8
:1013D0000100A34604EBDB71491001FB056100909D
:1013E00088B209F13001CAB223460399FFF7E2FE41
:1013F00000BF681CC5B2BD42AFDB06B0BDE8F08FD0
:1014000001490880704700007E00006C0149088097
:10141000704700008000006C0149088070470000A0
:101420008000006C1CB50121202000F08FF8012005
:101430008DF804004002009003208DF80500002084
:101440008DF8060001208DF8070069460A48FFF76D
:1014500077FC4FF400710848FFF7DDFC4FF4806023
:10146000009069460448FFF76BFC4FF48061024826
:10147000FFF7D1FC1CBD00000014024000BFFEE7D6
:101480007047000070B5002100230F22C4781CB300
:10149000174C246804F4E064C4F5E064C4F3072145
:1014A000C1F10404E3B20A4144789C40E1B284787B
:1014B000144021430C07210E0E4C05786155047829
:1014C00004F01F050124AC4005786D11AD0005F155
:1014D000E025C5F8004109E0047804F01F05012467
:1014E000AC40054D0678761145F8264070BD0000E9
:1014F0000CED00E000E400E080E100E0024901437F
:10150000024A1160704700000000FA050CED00E08F
:1015100010B5002807DA0A07140E054A00F00F0379
:101520001B1FD45403E00A07130E024A135410BDC4
:1015300018ED00E000E400E0014908627047000097
:1015400000000E4210B504F075FD10BD29B1064A29
:1015500012680243044B1A6004E0034A1268824393
:10156000014B1A60704700003038024029B1064A2A
:1015700012680243044B1A6004E0034A1268824373
:10158000014B1A60704700003838024029B1064A02
:1015900012680243044B1A6004E0034A1268824353
:1015A000014B1A60704700004038024029B1064ADA
:1015B00012680243044B1A6004E0034A1268824333
:1015C000014B1A607047000044380240F0B500211A
:1015D00000220024022500260223324F3F6807F034
:1015E0000C0121B1042905D0082937D105E02E4F7F
:1015F000076036E02D4F076033E02A4F3F1F3F68FA
:10160000C7F38056274F3F1F3F6807F03F036EB177
:10161000264FB7FBF3F7DFF88CC0ACF1040CDCF815
:1016200000C0CCF3881C07FB0CF40CE01E4FB7FB8A
:10163000F3F7DFF870C0ACF1040CDCF800C0CCF3B9
:10164000881C07FB0CF4174F3F1F3F68C7F3014787
:101650007F1C7D00B4FBF5F7076002E0124F0760C6
:1016600000BF00BF0F4F3F6807F0F0010909104F9E
:101670007A5C0768D74047600A4F3F6807F4E0513B
:10168000890A0B4F7A5C4768D7408760054F3F68EF
:1016900007F46041490B064F7A5C4768D740C76042
:1016A000F0BD0000083802400024F40000127A0067
:1016B0004400002010B501460022002300204A11FA
:1016C000012A02D10A4C236808E0022A03D1084CFF
:1016D0007034236802E0064C7434236801F01F0262
:1016E000012494401C400CB1012000E0002010BDFA
:1016F000003802400021094A11701170012802D0FF
:10170000042808D103E00121044A117004E00521F6
:10171000024A117000E000BF00BF704770380240FD
:1017200001490860704700003C0E4742002100F468
:101730004072B2F5407F08D1094A116821F4F811CE
:10174000084A02401143064A1160054A683212688D
:10175000C0F30B031A43024B68331A607047000052
:1017600008380240FFFCFF0F10B54FF4807000F006
:10177000B9F8012802D1000200F01EF84FF4003041
:10178000FFF7E0F910BD014600BF080900EB80003B
:10179000420001F00F001044C0B270470146002221
:1017A00004E0501CC2B2A1F10A00C1B20A29F8DA61
:1017B000100741EA1060704781B241F08001044A8D
:1017C000126802F0800262EA0101014A116070476A
:1017D0000C280040002101098AB242F08002044B2B
:1017E0001B6803F0800363EA0202014B1A60704732
:1017F0000C2800403EB541F6FF7401210807FFF7B1
:10180000C5FE0120FFF798FE002000F00BF945F21D
:101810005001884231D00120FFF76CFF04E0601CCA
:1018200084B20A2004F07EFC4120FFF743FF002829
:10183000F5D00CB901203EBD4FF48070FFF776FF64
:101840000120FFF76DFF7F20019000200090FF2016
:101850000290684600F0B4F8002332221E211020C6
:1018600000F0DCF903230E220921102000F0C4F956
:1018700045F25001002000F0C1FA0020DBE7000033
:1018800008B50022009200200021104A126802F0E0
:101890004002CAB9421E0D4B1A6000BF0B4A1268C3
:1018A00002F04001009A521C0092009AB2F5803F6B
:1018B00001D00029F2D0054A126802F040020AB1B4
:1018C000012002E0002000E0012008BD0C280040BB
:1018D0000348006820F0800001490860704700005C
:1018E0000C28004010B5014600200022054B1B6863
:1018F000054C03EA040202EA01030BB1012000E0F7
:10190000002010BD0C2800407F3F010070B5064646
:101910000C4600250F4800680F4900EA0105C5F391
:1019200005402070C5F30620607005F07F00A070B0
:1019300005F48000000CE0705EB92078FFF723FF0B
:1019400020706078FFF71FFF6070A078FFF71BFF23
:10195000A07070BD002800407F7F7F00CA22174B17
:101960001A6053221A6091B1144A1C3A126820F08E
:1019700004031A43114B1C3B1A60104A1C321268B4
:1019800000F004031A430D4B1C331A6011E00B4A9C
:101990001C3A126820F004039A43084B1C3B1A605F
:1019A000064A1C32126800F004039A43034B1C33AE
:1019B0001A60FF22014B1A60704700002428004083
:1019C00030B504460025CA20154908605320086038
:1019D000FFF756FF00B91DE011481C38006820F0E1
:1019E00040000F491C390860084600682168084318
:1019F0000B491C3908600A491439A0680860084678
:101A00000068A18840EA0140054914390860FFF7E1
:101A10005FFF0125FF2002490860284630BD000015
:101A20002428004008B5014600200090044800909A
:101A3000009800EB810000900098006808BD00004D
:101A4000502800402DE9F04105460C4600260027AD
:101A50004DB9607800F01000102804D1607820F0B3
:101A600010000A30607005B908E06078FFF78BFE5F
:101A70000646A078FFF787FE064600BF55B1E0781E
:101A80000004617840EA0120A1780843217840EA07
:101A9000413611E0E078FFF781FE4FEA00486078B8
:101AA000FFF77CFE48EA0028A078FFF777FE48EAB7
:101AB0000008207848EA4036CA20124908605320BE
:101AC0000860FFF7DDFE08B9002714E00E4830403B
:101AD0000C4920390860FFF7FBFE0A481C380068F3
:101AE00000F0200030B900F005F908B9002702E045
:101AF000012700E00127FF20024908603846BDE8C1
:101B0000F0810000242800403FFFFF002DE9F04154
:101B100005460C46002600274DB92E48006800F007
:101B2000400000B102E00020E07000BF0DE0294855
:101B3000006800F0400020B12078FFF724FE064640
:101B400002E00020E07000BF00BF55B12078000423
:101B5000617840EA0120A1780843E17840EA014633
:101B600011E02078FFF71AFE4FEA00486078FFF78F
:101B700015FE48EA0028A078FFF710FE48EA0008A2
:101B8000E07848EA0046CA2012491C310860532018
:101B90000860FFF775FE08B9002713E00E483040D3
:101BA0000C4908390860FFF793FE0A48006800F006
:101BB000200030B900F09EF808B9002702E00127A4
:101BC00000E00127FF2003491C3108603846BDE8CA
:101BD000F0810000082800407F7F7F00CA21054A6D
:101BE000116053211160034910390860FF21116011
:101BF0007047000024280040F8B504460D461746FB
:101C00001E468DF802708DF801508DF800608DF839
:101C1000034069460020FFF715FFF8BDF8B50446FC
:101C20000D4617461E468DF800408DF801508DF880
:101C300002708DF8036069460020FFF767FFF8BD6A
:101C40003EB505460C46002000F09CF8284600F002
:101C500081F82046FFF7C2FF4FF48040FFF7BAFD3E
:101C60004FF48000FEF76EFF01218803FFF776FE38
:101C7000012000F087F84FF48000019000208DF8DB
:101C8000080008208DF8090001208DF80A0001A83D
:101C9000FEF75EFF03208DF8000002208DF80100A2
:101CA0008DF8020001208DF803006846FFF7EAFB7B
:101CB0003EBD000010B54FF48060FFF713FE012811
:101CC0000ED18002FFF778FD0848006808B90120AE
:101CD00000E00020054908600548006803F0E4FEC4
:101CE0004FF48000FEF72EFF10BD0000A482424298
:101CF0001000002008B50022009200200021CA2216
:101D0000134B1A6053221A60114A183A126822F0D3
:101D1000A0020F4B183B1A6000BF0D4A183A126818
:101D200002F02001009A521C0092009AB2F5003F86
:101D300001D00029F1D0064A183A126802F02002B8
:101D40000AB1012000E00020FF22014B1A6008BD0B
:101D500024280040CA210A4A116053211160084911
:101D60001C39096821F00701054A1C3A1160114627
:101D7000096801431160FF21014A116070470000AA
:101D80002428004018B501460023009300220020BB
:101D9000CA23194C23605323236049B1164B1C3BC3
:101DA0001B6843F48063144C1C3C236001201FE03B
:101DB000114B1C3B1B6823F480630F4C1C3C2360BD
:101DC00000BF0D4B183B1B6803F00402009B5B1C1B
:101DD0000093009BB3F5803F01D0002AF1D0064B61
:101DE000183B1B6803F004030BB9002000E001203E
:101DF000FF23014C236018BD2428004008B50022B1
:101E00000092044A0092009A02EB80020092009A2B
:101E1000116008BD50280040704700000CB500203C
:101E2000019000903448006840F4803032490860E6
:101E300000BF3148006800F4003000900198401C59
:101E40000190009818B90198B0F5A04FF1D12A4837
:101E5000006800F4003010B10120009001E0002083
:101E600000900098012846D123484030006840F097
:101E700080502149403108602048006840F44040CB
:101E80001E4908601C48083000681B49083108607A
:101E90000846006840F4004008600846006840F4C6
:101EA000A05008601648091F0860081F006840F02D
:101EB0008070091F086000BF0F48006800F00070C4
:101EC0000028F9D040F205700E4908600A48083031
:101ED000006820F0030008490831086008460068DF
:101EE00040F00200086000BF03480830006800F0BE
:101EF0000C000828F8D10CBD0038024000700040EA
:101F000008544007003C024002460DE092F90000F0
:101F100091F90030984201D000207047107808B93C
:101F20000120FAE7521C491CF0E7042808D14FF0C1
:101F3000E021096941F004014FF0E022116107E05E
:101F40004FF0E021096921F004014FF0E022116116
:101F50007047000010B500200249087003F05AF9DC
:101F600010BD00004000002070B504460D464FF043
:101F7000E020006900F0010010B14FF0FF3070BDAB
:101F80006FF00400FFF7D1FF2046E11704EB517119
:101F9000C91069434FF0E022516100201146886169
:101FA0000846006940F00300086100BF034890F94B
:101FB0000000401C0028F9D00020E0E7400000208D
:101FC00010B51548006840F47000134908601348C4
:101FD000006840F001001149086000200F490831F5
:101FE00008600E4800680E4908400C4908600D481A
:101FF000091D0860081F006820F48020091F086080
:10200000002006490C310860FFF708FF4FF0006020
:1020100001498039086010BD88ED00E000380240B9
:10202000FFFFF6FE1030002400B59DB001210846E8
:10203000FFF79CFA0F20079000200890602009907D
:1020400000200A900B900C900D90152000900190AC
:102050000520029000200390049005900690062031
:102060000E9000200F9010901020119000201290E0
:1020700014901390159016904FF4805017900020F4
:1020800018904FF48040199000201A9007A81B90D8
:10209000CDF870D00EA8FEF7BFFD01210620FEF797
:1020A000A1FD1DB000BD00001CB501217820FFF787
:1020B0004DFA01210220FFF749FA0C220E21624855
:1020C000FEF786FE0C220F215F48FEF781FE0C22F0
:1020D00000215D48FEF77CFE0C2201215A48FEF7E4
:1020E00077FE0C2207215948FEF772FE0C220821C8
:1020F0005648FEF76DFE0C2209215448FEF768FE93
:102100000C220A215148FEF763FE0C220B214F4896
:10211000FEF75EFE0C2211464C48FEF759FE0C22DB
:102120000D214A48FEF754FE0C220E214748FEF7C7
:102130004FFE0C220F214548FEF74AFE0C220821D3
:102140004148FEF745FE0C2209213F48FEF740FEBC
:102150000C220A213C48FEF73BFE0C2204213A489F
:10216000FEF736FE0C2205213748FEF731FE0C2221
:1021700011463748FEF72CFE0C2211463548FEF773
:1021800027FE4CF23370009002208DF804000020EE
:102190008DF8060003208DF8050001208DF807005A
:1021A00069462948FEF7CCFD4FF68070009002206A
:1021B0008DF8040000208DF8060003208DF805003E
:1021C00001208DF8070069462048FEF7B9FD4FF45D
:1021D0008050009002208DF8040000208DF8060049
:1021E00003208DF8050001208DF807006946184886
:1021F000FEF7A6FD4FF48050009002208DF80400F9
:1022000000208DF8060003208DF8050001208DF8D0
:10221000070069460F48FEF793FD4FF40040009019
:1022200001208DF8040000208DF8060002208DF8B2
:10223000050001208DF8070069460748FEF780FD7C
:102240000120064908601CBD000C0240001002403D
:10225000001402400018024000040240BC824042C8
:1022600010B5FFF721FFFFF7DFFE322003F05AFF22
:10227000D320FFF7C5F8A4480088A4498880A24865
:1022800000888880A04800888880084680884FF6AB
:10229000FF7101EA00209D498880084680884FF040
:1022A000D841B1F880100843984988800846818851
:1022B00097A000F005FEFF20FFF7A2F8FF20FFF730
:1022C0009FF8052003F02EFFFF20FFF799F8FF206D
:1022D000FFF796F8FF20FFF793F8FF20FFF790F83D
:1022E0000A2003F01FFFB020FFF78AF80020FFF755
:1022F0008DF8B320FFF784F80220FFF787F800205D
:10230000FFF784F80020FFF781F80020FFF77EF840
:10231000C020FFF775F81320FFF778F83B20FFF790
:1023200075F80020FFF772F80020FFF76FF8002023
:10233000FFF76CF80120FFF769F80020FFF766F857
:102340004320FFF763F8C120FFF75AF80820FFF792
:102350005DF81B20FFF75AF80820FFF757F8082010
:10236000FFF754F8C420FFF74BF81120FFF74EF8A1
:102370000120FFF74BF87320FFF748F80120FFF723
:1023800045F8C620FFF73CF80020FFF73FF8C820CB
:10239000FFF736F80F20FFF739F80520FFF736F87A
:1023A0001420FFF733F85C20FFF730F80320FFF725
:1023B0002DF80720FFF72AF80720FFF727F810204D
:1023C000FFF724F80020FFF721F82320FFF71EF87D
:1023D0001020FFF71BF80720FFF718F80720FFF77A
:1023E00015F85320FFF712F80C20FFF70FF8142010
:1023F000FFF70CF80520FFF709F80F20FFF706F8A4
:102400002320FFF703F80020FFF700F83520FEF740
:10241000F7FF0020FEF7FAFF4420FEF7F1FF00204F
:10242000FEF7F4FF0120FEF7F1FFD020FEF7E8FFF2
:102430000720FEF7EBFF0720FEF7E8FF1D20FEF761
:10244000E5FF0320FEF7E2FFD120FEF7D9FF0320CE
:10245000FEF7DCFF5B20FEF7D9FF1020FEF7D6FF6A
:10246000D220FEF7CDFF0320FEF7D0FF2420FEF799
:10247000CDFF0420FEF7CAFF2A20FEF7C1FF00208F
:10248000FEF7C4FF0020FEF7C1FF0120FEF7BEFFEC
:102490003F20FEF7BBFF2B20FEF7B2FF0020FEF728
:1024A000B5FF0020FEF7B2FF0120FEF7AFFFDF20EF
:1024B000FEF7ACFF3620FEF7A3FF0020FEF7A6FFD5
:1024C000C020FEF79DFF1320FEF7A0FF3A20FEF785
:1024D00097FF5520FEF79AFF1120FEF791FF9620F7
:1024E00003F020FE2920FEF78BFF1E2003F01AFECA
:1024F0002C20FEF785FF0020FEF764FD4FF6FF70ED
:10250000FEF73CFD10BD00008000006C20000020A4
:10251000204C43442049443A25780D0A000000002D
:1025200086B00446FFF79CFE2046FEF7DFF9002048
:1025300003F0C2F90546294633A0FEF7D7F900207B
:1025400003F0BAF9054629462FA0FEF7CFF92F4828
:10255000006803F0A9FA0020FEF710FD4FF6E070C6
:102560002B49088000202B4908802BA01021CDE9A1
:1025700000102D48438802880A210846FEF7AEFE67
:10258000FFF738F900210420FFF75AFB01F0F1FDB5
:1025900001F014FE012003F0B7FA2449086031E08D
:1025A0002248006803F000FA9DF816209DF81510E7
:1025B0009DF8140002F0C0FA05A90020FFF7A6F963
:1025C0009DF8160000909DF815309DF8142018A174
:1025D00002A8FEF79FF99DF816209DF815109DF8AA
:1025E000140002F071F801F0C4FD01F0E7FD02A84B
:1025F0001021CDE900100C48438802883221502078
:10260000FEF76CFECCE70000257300000000002000
:102610001C0000201E0000204844532054657374A1
:102620002044656D6F000000200000201000002095
:1026300025643A25643A2564000000001CB5002496
:10264000012003F061FA8349086083A003F0A6FD2E
:10265000C5B2294682A003F04DF97FA003F09EFD8C
:10266000C5B2294680A003F045F97A48006803F016
:102670009BF94FF6E0707E4908807EA01021CDE9DD
:1026800000108248438802884FF49B710A20FEF7AD
:1026900025FE40F2FF70764908807DA01021CDE92B
:1026A00000107A48438802884FF4AA710A20FEF786
:1026B00015FECEE01F206E4908807AA01021CDE9DA
:1026C00000107248438802884FF4B9710A20FEF75F
:1026D00005FE00201021CDE9001074480278032384
:1026E0004FF4B9713220FEF72CFE71A01021CDE914
:1026F00000106648438802884FF4B9715020FEF7F5
:10270000EDFD47F6FF705A4908806AA01021CDE917
:1027100000105E48438802884FF4C8710A20FEF713
:10272000DDFD664800684FF47A71B0FBF1F0644952
:10273000B0FBF1F50020102102232A46CDE900105C
:102740004FF4C8713C20FEF7FCFD5EA01021CDE9DE
:1027500000104E48438802884FF4C8715020FEF79D
:10276000BDFD564800684FF47A71B0FBF1F04FF4AC
:102770006161B0FBF1F01821B0FBF1F201FB120531
:102780000020102102232A46CDE900104FF4C87121
:102790006420FEF7D6FD4CA01021CDE900103B4887
:1027A000438802884FF4C8717820FEF797FD4348AC
:1027B00000684FF47A71B0FBF1F03C21B0FBF1F00E
:1027C000B0FBF1F201FB12050020102102232A4682
:1027D000CDE900104FF4C8718C20FEF7B2FD3BA08C
:1027E0001021CDE900102948438802884FF4C871B0
:1027F000A020FEF773FD314800684FF47A71B0FBFA
:10280000F1F03C21B0FBF1F201FB12050020102198
:1028100002232A46CDE900104FF4C871B420FEF718
:1028200090FD2BA01021CDE90010184843880288A4
:102830004FF4C871C820FEF751FD641C642C02DA05
:10284000204603F06FFC2046641CB0F5FA6F00DBF5
:1028500000242FE7000000205461736B310000005A
:1028600048656C6C6F000000576F726C640000006C
:102870001C00002053544D3332463430375A4754ED
:1028800036403136384D487A0000000020000020E4
:10289000736F66746F732076312E302E3020426154
:1028A000746500004350553A0000000030000020DD
:1028B0002500000054494D453A0000002800002042
:1028C0008051010044000000480000004D0000005D
:1028D000530000007FE000203F4908604FF4FA7089
:1028E00003F020FC3DA0FEF701F800240DE03C4879
:1028F00050F8240090F83420394850F8240025235B
:10290000416838A0FDF7F2FF641C3A488068A04295
:10291000EDD80120304908604FF4FA7003F002FC52
:102920002EA0FDF7E3FF00240DE02D4850F8240011
:1029300090F834202A4850F824002523416829A023
:10294000FDF7D4FF641C2B488068A042EDD802F04C
:10295000D9FD054602F0F4FE06462A46314626A079
:10296000FDF7C4FF02F01AFF0546294626A0FDF731
:10297000BDFF2948006800F58060274908600846C7
:102980000068B0F5804F02D34FF4806008602248A1
:10299000006802F01BFE214908600846006818B96B
:1029A0001FA0FDF7A3FF0DE021480078401C20493F
:1029B00008701A48036808460278174801681DA085
:1029C000FDF794FF1548006802F0A0FD1F4801685C
:1029D0001FA003F02FFC7EE7A88242420A000000FD
:1029E000685400202573204350553A256425630A16
:1029F000000000005C5400204D656D6F72793A252F
:102A000064422F2564420A004D656D6F72795F4DF7
:102A100041583A25640A00000C0000200400002000
:102A20004D656D6F72792D4572726F720A000000EC
:102A3000080000206D3A256420733A2564204D6516
:102A40006D6F72792D4F4B3D25640A0028000020E0
:102A500025643A25683A256D3A25730A000000007E
:102A60001CB52AE01548058015A01021CDE90010FD
:102A70001448438802884FF4D7712046FEF72EFC95
:102A8000C82003F04FFB10A01021CDE900100D4825
:102A9000438802884FF4D7712046FEF71FFCC820F8
:102AA00003F040FB48F2A060284485B204F10A001C
:102AB00084B2B4F5AF7F00DB0024D3E71C00002014
:102AC0002D3E0000200000202020000086B00024C1
:102AD000FEF70AF85BE0FEF7CBF904462CA01021C4
:102AE000CDE900102D48438802884FF4E6710A2092
:102AF000FEF7F4FB002C0DDA644229A01021CDE989
:102B000000102648438802884FF4E6715A20FEF7E9
:102B1000E5FB0BE023A01021CDE900101F484388FE
:102B200002884FF4E6715A20FEF7D8FB0A2094FB86
:102B3000F0F100FB1145642094FBF0F100FB114023
:102B40000A2190FBF1F64FF47A7094FBF0F100FB50
:102B50001140642190FBF1F74FF47A7094FBF0F888
:102B60003B46424610A103A8CDE9006500F0B8F944
:102B700003A81021CDE900100848438802884FF4CB
:102B8000E6716420FEF7AAFBFA2003F0CBFAA2E775
:102B90004D43552054454D503A0000002000002080
:102BA0002D0000002B000000256425642E256425DF
:102BB0006420430010B540F225511D4800F0BAF8DA
:102BC00010B31B4800F070F9C4B21A48008800F432
:102BD0000040C8B91748008800F4804060B10A2C52
:102BE00003D000201349088020E01248008840F4F8
:102BF00000401049088019E00D2C06D10D480088CE
:102C000040F480400B49088010E00A480088C0F377
:102C10000D0009490C5407480088401C05490880EC
:102C200008460088C72801DD0020088010BD00008C
:102C300000100140420000206855002010B588B007
:102C4000044601210846FEF781FC01211020FEF711
:102C5000ADFC072209212448FEF7BAF807220A2111
:102C60002148FEF7B5F84FF4C060069002208DF8B9
:102C70001C008DF81D0000208DF81E0001208DF82D
:102C80001F0006A91848FEF75BF802940020ADF873
:102C90000C00ADF80E00ADF81000ADF814000C20DB
:102CA000ADF8120002A9114800F094F801210F4874
:102CB00000F027F840210D4800F01AF8012240F2F8
:102CC00025510A4800F060F825208DF80400032003
:102CD0008DF805008DF8060001208DF8070001A889
:102CE000FEF7D0FB08B010BD00000240001001400C
:102CF00001F40072B2F5007F00D100BFCA43028028
:102D0000704721B1828942F40052828104E08289B5
:102D10004DF6FF731A408281704702460020B1F5DC
:102D2000007F00D100BF13880B400BB1012000E0F1
:102D30000020704770B502460024002300250020C3
:102D400040F66A16B14200D100BFC1F3421501F04E
:102D50001F03012606FA03F3012D02D196893340A1
:102D600006E0022D02D1168A334001E0968A3340F4
:102D70000C12012606FA04F41688344013B10CB183
:102D8000012000E0002070BDF0B5034600240026BD
:102D90000025002040F66A17B94200D100BF18464E
:102DA000C1F3421401F01F06012707FA06F5012CB2
:102DB00001D10C3004E0022C01D1103000E01430BD
:102DC0001AB107682F43076002E00768AF43076046
:102DD000F0BD00002DE9FF4705460E460024A14640
:102DE00000BFA046B08900B100BF2C8A24F4405433
:102DF000F08804432C82AC8941F20C608443B08893
:102E000031890843718908430443AC81AC8A24F4B6
:102E10004074B0890443AC826846FEF7D7FB204873
:102E2000854202D01F48854202D1DDF80C9001E0B6
:102E3000DDF80890A88900F4004040B109EBC90012
:102E400000EB091031684900B0FBF1F707E009EB2E
:102E5000C90000EB091031688900B0FBF1F764206C
:102E6000B7FBF0F004012009642101FB1078A88968
:102E700000F4004040B1322000EBC800B0FBF1F09C
:102E800000F00700044308E0322000EB0810642142
:102E9000B0FBF1F000F00F0004432C81BDE8FF8788
:102EA000001001400014014001468888C0F308006A
:102EB0007047C1F308028280704700BFFEE7000040
:102EC0000FB4054B10B503A9044A029800F0DCFFCB
:102ED00010BC5DF814FB0000B14F00085400002046
:102EE0000FB4084B10B504A902AA039800F0CCFF58
:102EF000044602A9002001F027F9204610BC5DF825
:102F000014FB00004941000803B4019841000098F7
:102F100050EAC12018BF04204A0D18BF40F001003C
:102F200040F2FF72B2EB515F08BF40F0020001288F
:102F300008BF052002B0704710B52F499FED2C1B2C
:102F40002DED020B84B0059820F000408842D8BFD8
:102F50009DED040B2DDD2949884209D1049840B923
:102F60004FF0010000F0D4FC00F0A2FC06B010BD50
:102F700005DB9DED040B00F08FFC06B010BD68462C
:102F80009DED040B00F0A0F810F0030004BF9DEDD0
:102F9000021B9DED000B0CD001280ED09DED021BF5
:102FA0009DED000B022817D0012000F0DDFB06B0DC
:102FB00010BD00F0A5FA06B010BD9DED021B9DED01
:102FC000000B012000F0D0FB51EC100B81F0004110
:102FD00006B041EC100B10BD00F092FA51EC100B52
:102FE00081F0004106B041EC100B10BD0000000064
:102FF0000000000000000000FB21E93F0000F07F1E
:1030000010B52F499FED2C1B2DED020B84B00598B8
:1030100020F000408842DCBF00209DED040B32DD33
:103020002849884209D1049840B94FF0010000F0C6
:103030006FFC00F03DFC06B010BD05DB9DED040B00
:1030400000F02AFC06B010BD68469DED040B00F0B0
:103050003BF810F0030011D0012818D09DED021BA1
:103060009DED000B02281AD000F04AFA51EC100B2B
:1030700081F0004106B041EC100B10BD9DED021B2C
:103080009DED000B012000F06FFB06B010BD9DED23
:10309000021B9DED000B00F033FA06B010BD0120BD
:1030A00000F062FB51EC100B81F0004106B041ECE6
:1030B000100B10BD00000000000000000000000028
:1030C000FB21E93F0000F07F2DE9F14F04462DED93
:1030D000020B2DED088B8AB09FEDE70B80ED020B04
:1030E000139EE74826F0004585420ADC9DED120B51
:1030F000002084ED000B0AB0BDEC088B03B0BDE8E6
:10310000F08FE0489FEDE0AB9FEDE1BBA84247DDCB
:10311000E14F9FEDE39B9FEDE48B9DED120B53EC94
:103120001A2B51EC100B002E1CDDFDF7ADF941EC14
:10313000100BBD4208D053EC1B2B51EC100BFDF7CC
:10314000A3F9C4E900010BE053EC192B51EC100B6F
:10315000FDF79AF953EC182BFDF796F9C4E9000135
:103160000120C8E7FDF7EFF841EC100BBD4208D095
:1031700053EC1B2B51EC100BFDF7E5F8C4E90001F3
:103180000BE053EC192B51EC100BFDF7DCF853EC72
:10319000182BFDF7D8F8C4E900014FF0FF30AAE77B
:1031A000C348A84279DB9DED120B51EC100B01F0E6
:1031B000F3FE41EC180B9FEDC00B53EC102BFDF709
:1031C00069F99FEDBF1B53EC112BFDF7BCF8FDF720
:1031D00060FA0746FDF73FFA41EC190B53EC1A2B46
:1031E000FDF758F953EC182BFDF751F941EC180B8A
:1031F00053EC1B2B51EC190BFDF74CF9DFF8C8A26F
:1032000041EC100B4FEA15580125FA4453EC102BF2
:1032100051EC180BFDF738F9032DC4E900013DD03E
:10322000C1F30A5005EB4511A8EB000011398142AA
:1032300034DA0AEB051BB0EE48AA9BED000BF0EE6A
:1032400068AA53EC102B51EC190BFDF723F941EC54
:103250001B0B51EC1A0B53EC1B2BFDF715F941EC32
:10326000180B51EC1A0B53EC182BFDF70DF953EC1E
:103270001B2BFDF709F99BED020B41EC1A0B53ECEC
:10328000102B51EC190BFDF705F953EC1A2BFDF738
:10329000FBF841EC100B6D1CB8E70EE0002EA8BF48
:1032A0003846BFF628AF94ED000B51EC100B81F0BF
:1032B0000041C4E9000178421DE7C6F3130040F461
:1032C000801EC6F30A50A0F2F530471100F01F052A
:1032D000C5F12000DDF848B0089000200690079066
:1032E0000520EC467949002D07EB0002794408BF20
:1032F00051F8221009D051F8223001EB8201AB4085
:103300004A68089922FA01F11943A1FB0E26A1FB94
:103310000B131A449A4234BF0123002303EB06081F
:103320000CEB8003D3E901A60E448E4234BF012189
:10333000002192448A4411B1924502D903E092459A
:1033400001D2012100E00021C3E901A641444CF86B
:103350002010011EA0F10100C4DC029800F1005011
:10336000850F0298DDE903678000DDF81480FDF722
:1033700072F941EC1A0B3046FDF77EF99FED541BB4
:1033800053EC112BFDF786F841EC1B0B3846FDF78B
:1033900073F99FED511B53EC112BFDF77BF841ECBA
:1033A000180B4046FDF768F99FED4D1B53EC112BB0
:1033B000FDF770F841EC190B51EC180B53EC192B7D
:1033C000FCF7C1FF53EC1B2BFCF7BDFF53EC1A2B92
:1033D000FCF7B9FFCDE90801002008909DED080B2E
:1033E00053EC1A2B51EC100BFDF74EF853EC1B2B42
:1033F000FDF74AF853EC182BFDF746F853EC192B60
:10340000FDF745F89FED381B53EC112BFDF742F803
:103410009FED370B41EC180B53EC102B9DED080B77
:1034200051EC100BFDF736F853EC182BFCF78BFF23
:103430009FED310B41EC180B53EC102B9DED080B5D
:1034400051EC100BFDF726F853EC182BFCF77BFF23
:1034500041EC100B139810F0004F06D06D4251EC68
:10346000100B81F0004141EC100B284684ED000B5D
:1034700041E6000000000000000000000000000025
:10348000FB21E93F7CD9024000004054FB21F93F79
:103490003163621A61B4D03DFB21F93F00000000A6
:1034A0000000601A61B4D03D7370032E8A19A33BEB
:1034B000FB2139410000000083C8C96D305FE43F43
:1034C000000000000000E03F2A7C0000787B000044
:1034D000000000000000103E000000000000103C52
:1034E000000000000000103A182D4454FB21F93D63
:1034F0003326A611460B113C00000054FB21F93D78
:1035000010B52DED040B2DED088B82B0B0EE419A75
:10351000F0EE619A0B9820F000449FED4BABB4F1B4
:10352000795F11DA9DED0A0B51EC100BFDF7B1F844
:10353000002801BFB0EE4A0AF0EE6A0A02B0BDEC04
:10354000088B04BF04B010BD9DED0A0B53EC102B8B
:1035500051EC100BFCF79EFF41EC180B3C48062188
:10356000B0EE480AF0EE680A784400F081F853ECB7
:10357000182B51EC100BFCF78DFF9DED0A0B41EC65
:103580001B0B53EC192B51EC100BFCF783FF41EC98
:10359000190B53EC1B2B51EC180BFCF77BFF53EC76
:1035A000192BFCF771FF9FED2C0B41EC190B53EC21
:1035B000102B51EC180BFCF76DFF41EC100B284859
:1035C000844210DA53EC192B51EC100BFCF75CFF22
:1035D00053EC1A2BFCF75BFF41EC100B02B0BDEC77
:1035E000088B04B010BD1F48A042BCBF9FED1E1B3E
:1035F0008DED001B06DBA4F500100190002000906B
:103600009DED001B51EC100B53EC112BFCF73CFF14
:103610009DED000B41EC180B53EC102B51EC1A0BE9
:10362000FCF732FF41EC1A0B53EC192B51EC180B41
:10363000FCF72AFF53EC1A2BFCF729FF41EC100B87
:10364000CCE7000000000000000000000000F03F98
:103650009C78000000000000000000000000E03F37
:103660003333D33F0000E93F000000000000D23FA9
:1036700070B504462DED028B4D1E00EBC500B0EE7B
:10368000408AF0EE608A90ED000B35F0060017D00E
:1036900053EC182B51EC100BFCF7FCFE41EC100B1B
:1036A0006D1E04EBC50090ED001B51EC100B53ECAC
:1036B000112BFCF748FE41EC100B35F00600E7D16A
:1036C000022D36D0042D1CD0062D1CBFBDEC028B64
:1036D00070BD53EC182B51EC100BFCF7DBFE94ED96
:1036E0000A1B53EC112BFCF72EFE53EC182BFCF7A6
:1036F000D1FE94ED081B53EC112BFCF724FE41EC9A
:10370000100B53EC182B51EC100BFCF7C3FE94ED8F
:10371000061B53EC112BFCF716FE53EC182BFCF791
:10372000B9FE94ED040B53EC102BFCF70CFE41ECAE
:10373000100B53EC182B51EC100BFCF7ABFE94ED77
:10374000021B53EC112BFCF7FEFD53EC182BFCF77E
:10375000A1FE94ED001B53EC112BFCF7F4FDBDEC26
:10376000028B41EC100B70BD31B504462DED040BFE
:103770002DED0A8BB0EE41BAF0EE61BA0B989DEDDB
:103780000A0B20F00040B0F1795F0DDA51EC100B1C
:10379000FFF7BAFB042808BF00F09AF89DED0A0B6A
:1037A000BDEC0A8B05B030BD53EC102B51EC100B67
:1037B000FCF770FE41EC180B9DED0A0B53EC182B37
:1037C00051EC100BFCF766FE41EC190B2C48B0EEE7
:1037D000480AF0EE680A05217844FFF749FF9FED9B
:1037E0002ACBB0EE40AAF0EE60AA9CB353EC1C2B9F
:1037F00051EC190BFCF74EFE41EC1C0B53EC1A2B51
:1038000051EC190BFCF746FE9FED210B41EC190B17
:1038100053EC102B51EC1B0BFCF73CFE53EC192B1B
:10382000FCF732FE53EC182BFCF734FE53EC1B2B49
:10383000FCF72AFE53EC1C2BFCF726FE9DED0A1B21
:1038400053EC112BFCF723FEBDEC0A8B05B041ECC9
:10385000100B30BDFFE753EC1A2B51EC180BFCF7A3
:1038600019FE53EC1C2BFCF76EFD53EC192BFCF7E7
:1038700011FE9DED0A1B53EC112BFCF764FDE3E7F1
:103880002477000000000000495555555555C5BF27
:10389000000000000000E03F10B553EC102B51EC8D
:1038A000100BFCF750FD41EC100B10BD00000000A8
:1038B0009FED050B10B553EC102B51EC100BFCF7E2
:1038C0005BFE41EC100B10BD00000000000000008A
:1038D0009FED050B10B553EC102B51EC100BFCF7C2
:1038E000D9FD41EC100B10BD0000000000000010DD
:1038F00002E008C8121F08C1002AFAD170477047B9
:10390000002001E001C1121F002AFBD17047000016
:103910000149086070470000580000202DE9F0417F
:1039200006460F461C243946302002F0EBFC39468F
:10393000782002F0E7FC56E046FA04F000F00F05AC
:103940000C2D25D005DC5DB10A2D13D00B2D3BD1FC
:1039500017E00D2D23D00E2D28D00F2D34D12CE0C3
:1039600004F0004028B105F13001C8B2394602F038
:10397000C9FC32E03946412002F0C4FC44F0004466
:103980002BE03946422002F0BDFC44F0004424E024
:103990003946432002F0B6FC44F000441DE03946AD
:1039A000442002F0AFFC44F0004416E039464520C4
:1039B00002F0A8FC44F000440FE03946462002F033
:1039C000A1FC44F0004408E005F13001C8B23946DA
:1039D00002F098FC44F0004400BF00BF24F0004017
:1039E00000B901E0241FA7E700BFBDE8F08170B572
:1039F00004460E461546002C05DAE043441C2946D1
:103A00002D2002F07FFC2A463146204600F054F873
:103A100070BD2DE9F0472DED068B06460F460024BC
:103A20000A2596ED000BB0EE408AF0EE608A4FF06A
:103A3000010816E02846FCF70EFE53EC182BFCF7A5
:103A400029FDFCF745FE0A21B0FBF1F201FB120053
:103A500004EB840100EB410405EB8500450008F10F
:103A60000108B8F1070FE5DB05EB850045000AE02A
:103A70000A2094FBF0F100FB114018B90A2094FBD6
:103A8000F0F400E000E0F3E700BF51EC180BFCF7A6
:103A900000FE81463A460021FFF7A9FF39462E2055
:103AA00002F030FC3A460021204600F005F8BDEC5B
:103AB000068BBDE8F08700002DE9F04704460D466F
:103AC000914600269C4A022320460021FCF7F8FB81
:103AD0000023181A73EB010201DB0B2D0CD1964A5F
:103AE000022320460021FCF7EBFB3030C7B24946E9
:103AF000384602F007FC01268F4A022320460021A7
:103B0000FCF7DEFB174619468C4A00233846FCF7C3
:103B1000D7FB0023181A73EB010203DB012E01D03F
:103B20000A2D14D1844A022320460021FCF7C8FB49
:103B300017461946814A00233846FCF7C1FB30304E
:103B400000F0FF0A4946504602F0DCFB01267B48A4
:103B5000B4FBF0F100FB11407949B0FBF1F018B96A
:103B6000012E01D0092D0ED17448B4FBF0F100FBF9
:103B700011407349B0FBF1F03030C7B249463846C6
:103B800002F0C0FB01266E48B4FBF0F100FB1140CF
:103B90006C49B0FBF1F018B9012E01D0082D0ED1FF
:103BA0006748B4FBF0F100FB11406649B0FBF1F04F
:103BB0003030C7B24946384602F0A4FB01266148BE
:103BC000B4FBF0F100FB11405F49B0FBF1F018B914
:103BD000012E01D0072D0ED15A48B4FBF0F100FBA5
:103BE00011405949B0FBF1F03030C7B24946384670
:103BF00002F088FB01265448B4FBF0F100FB1140B1
:103C00005249B0FBF1F018B9012E01D0062D0ED1AA
:103C10004D48B4FBF0F100FB11404C49B0FBF1F012
:103C20003030C7B24946384602F06CFB012647489F
:103C3000B4FBF0F100FB114042F21071B0FBF1F067
:103C400018B9012E01D0052D0FD14048B4FBF0F179
:103C500000FB114042F21071B0FBF1F03030C7B2FE
:103C60004946384602F04EFB012642F21070B4FB82
:103C7000F0F100FB11404FF47A71B0FBF1F018B98C
:103C8000012E01D0042D10D142F21070B4FBF0F1DE
:103C900000FB11404FF47A71B0FBF1F03030C7B245
:103CA0004946384602F02EFB01264FF47A70B4FBE9
:103CB000F0F100FB11406421B0FBF1F018B9012EC6
:103CC00001D0032D0FD14FF47A70B4FBF0F100FB5B
:103CD00011406421B0FBF1F03030C7B2494638469C
:103CE00002F010FB01266420B4FBF0F100FB114050
:103CF0000A21B0FBF1F018B9012E01D0022D0ED12E
:103D00006420B4FBF0F100FB11400A21B0FBF1F09C
:103D100000F130074946384602F0F4FA01260A203D
:103D2000B4FBF0F100FB114000F130074946384682
:103D300002F0E8FABDE8F08700E40B5400CA9A3BB1
:103D400000E1F5058096980040420F00A086010032
:103D50002DE9F04106460F461E2446FA04F000F015
:103D600003053946302002F0CDFA002D07DD05F1BC
:103D70003001C8B2394602F0C5FA44F0004415E0FB
:103D800046FA04F000F00705002D02DC04F00040C4
:103D900038B105F13001C8B2394602F0B3FA44F047
:103DA000004424F0004000B901E0E41EE8E700BF51
:103DB000BDE8F0812DE9F04106460F461C24394646
:103DC000302002F09FFA3946782002F09BFA56E044
:103DD00046FA04F000F00F050C2D25D005DC5DB18E
:103DE0000A2D13D00B2D3BD117E00D2D23D00E2D16
:103DF00028D00F2D34D12CE004F0004028B105F17B
:103E00003001C8B2394602F07DFA32E0394661200D
:103E100002F078FA44F000442BE03946622002F0C8
:103E200071FA44F0004424E03946632002F06AFA53
:103E300044F000441DE03946642002F063FA44F087
:103E4000004416E03946652002F05CFA44F0004474
:103E50000FE03946662002F055FA44F0004408E0CD
:103E600005F13001C8B2394602F04CFA44F0004482
:103E700000BF00BF24F0004000B901E0241FA7E705
:103E800000BFBDE8F08100002DE9FF4F8DB09B46DB
:103E90000F460446002606E025280BD05A460F9907
:103EA0009047641C761C20780028F5D111B030466C
:103EB000BDE8F08F0025A8460122984900E005439F
:103EC00014F8013F203B02FA03F00842F7D12078B2
:103ED0002E2817D114F8010F45F004052A280ED01A
:103EE0006FF02F022078A0F1300109290AD808EBE1
:103EF000880102EB410100EB0108641CF2E757F86E
:103F0000048B641C20786C280DD004DC4C2812D063
:103F10006A2811D104E074280DD07A280CD10AE067
:103F200045F4001507E0617845F48015814202D11F
:103F3000641C05F58015641C2278692A45D008DCCC
:103F4000002AB3D0582A69D0632A10D0642A08D135
:103F50003BE0702A67D0732A13D0752A5CD0782A88
:103F60005CD010465A460F999047761CD3E017F85C
:103F7000040B8DF8000000208DF80100E9460120B7
:103F800003E057F8049B4FF0FF3069074FF000053E
:103F900001D40AE06D1C45450DDA8542FADB19F8BB
:103FA00005100029F6D106E06D1C8542FCDB19F8EE
:103FB00005100029F8D12E4404E019F8010B5A46E7
:103FC0000F9990476D1EF8D2A5E00A200021CDE997
:103FD0000801C5F3025002280DD001CFC117031EFE
:103FE00071F100030DDA4FF0000CD0EB0C006CEB1C
:103FF00001012D2308E0FF1D27F00707F7E8020164
:10400000EDE72B0504D52B238DF8283001233BE069
:10401000EB0739D02023F7E70A2000E01020002129
:10402000CDE9080107E01020002145F00405CDE9A5
:1040300008014FF00808C5F3025002280FD001CF45
:1040400000214FF0000A2B071FD5702A0DD0DDE9A3
:1040500008C38CF0100C5CEA030C0CD015E0FF1DBB
:1040600027F00707F7E80201EBE740228DF8282048
:104070004FF0010A0BE050EA010306D030238DF81F
:1040800028308DF8292002239A46582A04D024A2E9
:104090000DF120090B9209E026A2F9E7DDE90823DA
:1040A000FCF742FB0B9B9B5C09F8013D50EA0102C7
:1040B000F4D1ADEB090020300890680701D44FF02F
:1040C00001080899884502DDA8EB010000E0002006
:1040D0008046002506E00AA85A46405D0F999047A1
:1040E0006D1C761C5545F6DB04E030205A460F99CE
:1040F0009047761CB8F10001A8F10108F5DC05E055
:1041000019F8010B5A460F999047761C0899481EDA
:1041100008900029F4DC641CC5E6000009280100B1
:10412000303132333435363738396162636465662D
:1041300000000000303132333435363738394142EF
:1041400043444546000000000A68531C0B60107091
:10415000704770B504460D4608E0207820B12078FD
:10416000294602F0CFF800E001E0641CF5E700BF4B
:1041700070BD10B54FF6E0736422C821104600F000
:1041800029FF4FF6E0736322C821642000F022FF6C
:104190004FF6E0736222C821642000F01BFF4FF647
:1041A000E0736122C821642000F014FF4FF6E07331
:1041B0000522C821642000F00DFF10BD2DE9F04F4D
:1041C0002DED0C8B8BB02422FE4902A8FCF7A9F838
:1041D00000246DE22046FCF74FFA41EC1D0B9FEDE9
:1041E000FA0B53EC102BFCF755F941EC1C0B9FED2F
:1041F000F80B53EC102BFCF7BFF941EC1B0BB0EEA6
:104200004B0AF0EE6B0AFEF7FBFEB0EE40AAF0EEB2
:1042100060AA9FEDF10B53EC102B51EC1A0BFCF73D
:1042200039F941EC190B9FEDEE0B53EC102BFCF719
:104230008AF841EC180BFCF72CFA05462046FCF7EF
:104240001BFA41EC1D0B9FEDE00B53EC102BFCF720
:1042500021F941EC1C0B9FEDDE0B53EC102BFCF70E
:104260008BF941EC1B0BB0EE4B0AF0EE6B0AFEF73C
:1042700063FEB0EE40AAF0EE60AA9FEDD70B53ECC0
:10428000102B51EC1A0BFCF705F941EC190B9FEDC3
:10429000D40B53EC102BFCF7FAF841EC180BFCF79D
:1042A000F8F906462046FCF7E7F941EC1D0B9FEDB7
:1042B000C60B53EC102BFCF7EDF841EC1C0B9FEDFB
:1042C000C40B53EC102BFCF757F941EC1B0BB0EE71
:1042D0004B0AF0EE6B0AFEF793FEB0EE40AAF0EE4A
:1042E00060AA9FEDC10B53EC102B51EC1A0BFCF79D
:1042F000D1F841EC190B9FEDBA0B53EC102BFCF7E6
:1043000022F841EC180BFCF7C4F907462046FCF7ED
:10431000B3F941EC1D0B9FEDAC0B53EC102BFCF7EC
:10432000B9F841EC1C0B9FEDAA0B53EC102BFCF7DA
:1043300023F941EC1B0BB0EE4B0AF0EE6B0AFEF7D3
:10434000FBFDB0EE40AAF0EE60AA9FEDA70B53EC88
:10435000102B51EC1A0BFCF79DF841EC190B9FED5B
:10436000A00B53EC102BFCF792F841EC180BFCF768
:1043700090F980464FF478409D49088008F1640C1C
:104380001FFA8CF3BAB206F1640C1FFA8CF1A8B2D2
:10439000FCF74AFE052094FBF0F100FB11400028D9
:1043A0007DD12046FCF768F941EC1D0B9FED860B93
:1043B00053EC102BFCF76EF841EC1C0B9FED840BBB
:1043C00053EC102BFCF7D8F841EC1B0BB0EE4B0A6A
:1043D000F0EE6B0AFEF714FEB0EE40AAF0EE60AA13
:1043E0009FED840B53EC102B51EC1A0BFCF752F899
:1043F00041EC190B9FED7A0B53EC102BFBF7A3FF4D
:1044000041EC180BFCF745F905462046FCF734F95A
:1044100041EC1D0B9FED6C0B53EC102BFCF73AF8A5
:1044200041EC1C0B9FED6A0B53EC102BFCF7A4F82E
:1044300041EC1B0BB0EE4B0AF0EE6B0AFEF77CFD75
:10444000B0EE40AAF0EE60AA9FED6A0B53EC102B81
:1044500051EC1A0BFCF71EF841EC190B9FED600BA9
:1044600053EC102BFCF713F841EC180BFCF711F987
:1044700006462046FCF700F941EC1D0B9FED520B60
:1044800053EC102BFCF706F841EC1C0B9FED500B86
:1044900053EC102BFCF770F841EC1B0B00E005E12E
:1044A000B0EE4B0AF0EE6B0AFEF7AAFDB0EE40AAA2
:1044B000F0EE60AA9FED4C0B53EC102B51EC1A0B55
:1044C000FBF7E8FF41EC190B9FED450B53EC102B6C
:1044D000FBF739FF41EC180BFCF7DBF807462046E9
:1044E000FCF7CAF841EC1D0B9FED370B53EC102B7A
:1044F000FBF7D0FF41EC1C0B9FED350B53EC102B61
:10450000FCF73AF841EC1B0BB0EE4B0AF0EE6B0AED
:10451000FEF712FDB0EE40AAF0EE60AA9FED320B5E
:1045200053EC102B51EC1A0BFBF7B4FF41EC190BB9
:104530009FED2B0B53EC102BFBF7A9FF41EC180B55
:10454000FCF7A7F8804608F1640C1FFA8CF3BAB2A6
:1045500006F1640C1FFA8CF1A8B2FCF765FD204649
:10456000FCF78AF841EC1D0B9FED170B53EC102B59
:10457000FBF790FF41EC180B9FED150B53EC102B44
:10458000FBF7FAFF41EC1C0BB0EE4C0AF0EE6C0AA4
:10459000FEF736FDB0EE40BAF0EE60BA9FED170BB5
:1045A00053EC102B51EC1B0BFBF774FF41EC1A0B77
:1045B0009FED090B53EC102BFBF7C5FE41EC190BDB
:1045C00020E00000C86400084AD8124DFB210940D1
:1045D0000000000000003E400000000000005740C6
:1045E000000000000000594000000000004058405A
:1045F0001C000020000000000040554000000000AA
:1046000000005440FCF745F881462046FCF734F89A
:1046100041EC1D0B1FED140B53EC102BFBF73AFF75
:1046200041EC1C0B1FED160B53EC102BFBF7A4FFFA
:1046300041EC180BB0EE480AF0EE680AFEF77CFC7D
:10464000B0EE40BAF0EE60BA1FED140B53EC102B35
:1046500051EC1B0BFBF71EFF41EC1A0B1FED220B5D
:1046600053EC102BFBF713FF41EC190BFCF711F87F
:1046700082464FF6E07012490880052094FBF0F066
:1046800000EB400002A900EB010B1020DFF834C062
:10469000CDE9000BBCF80230BCF800200AF1640C34
:1046A0001FFA8CF11FFA89F0FCF718FE601CC4B2E7
:1046B0003C2CFFF68FAD0BB0BDEC0C8BBDE8F08F42
:1046C0001C000020200000202DE9F74F2DED108B5D
:1046D00084B00E4617463846FBF7BDFF41EC1D0B74
:1046E0009FEDFE0B53EC102BFBF7D4FE41EC1C0BA3
:1046F0009FEDFC0B53EC102BFBF73EFF41EC1A0B2C
:104700003046FBF7A8FF41EC1F0B9FEDF40B53EC79
:10471000102BFBF7BFFE41EC1E0B9FEDF40B53EC8F
:10472000102BFBF729FF41EC1C0B1498FBF793FFB0
:1047300041EC1F0B9FEDE90B53EC102BFBF7AAFE8E
:1047400041EC1E0B9FEDEB0B53EC102BFBF714FF12
:1047500041EC1D0B53EC1C2BFBF7F5FD41EC1B0B47
:1047600053EC1A2BFBF7EFFD41EC190BB0EE490AA5
:10477000F0EE690AFEF744FC8DED000B9FEDDF0BB8
:1047800053EC102B9DED000B51EC100BFBF782FE50
:1047900041EC180BFBF77DFF80463846FBF75BFFCB
:1047A00041EC1D0B9FEDCD0B53EC102BFBF772FE74
:1047B00041EC1C0B9FEDCB0B53EC102BFBF7DCFEFD
:1047C00041EC1A0B3046FBF746FF41EC1F0B9FED07
:1047D000C30B53EC102BFBF75DFE41EC1E0B9FED62
:1047E000C30B53EC102BFBF7C7FE41EC1C0B1498CA
:1047F000FBF731FF41EC1F0B9FEDB80B53EC102B77
:10480000FBF748FE41EC1E0B9FEDBA0B53EC102B4F
:10481000FBF7B2FE41EC1D0B53EC1C2BFBF793FD99
:1048200041EC1B0B53EC1A2BFBF78DFD41EC190BE4
:10483000B0EE490AF0EE690AFEF77EFBB0EE408A60
:10484000F0EE608A9FEDAD0B53EC102B51EC180B82
:10485000FBF720FECDE900019DED000B51EC100BA4
:10486000FBF717FF81463846FBF7F5FE41EC1E0BC0
:104870009FED9A0B53EC102BFBF70CFE41EC1D0B3C
:104880009FED980B53EC102BFBF776FE41EC1B0BC6
:104890003046FBF7E0FE41EC1E0B9FED900B53EC16
:1048A000102BFBF7F7FD41EC1D0B9FED960B53EC26
:1048B000102BFBF761FE41EC1C0B53EC1B2BFBF7A1
:1048C00042FD41EC1A0BB0EE4A0AF0EE6A0AFEF71E
:1048D00097FBB0EE409AF0EE609A9FED8C0B53EC94
:1048E000102B51EC190BFBF7D5FD41EC180BFBF726
:1048F000D0FE04463846FBF7AEFE41EC1E0B9FEDA2
:10490000770B53EC102BFBF7C5FD41EC1D0B9FED16
:10491000750B53EC102BFBF72FFE41EC1A0B3046B6
:10492000FBF799FE41EC1E0B9FED6C0B53EC102B2B
:10493000FBF7B0FD41EC1D0B9FED720B53EC102B00
:10494000FBF71AFE41EC1B0B53EC1A2BFBF7FBFC9D
:1049500041EC190BB0EE490AF0EE690AFEF7ECFAE9
:10496000B0EE40CAF0EE60CA9FED680B53EC102B1E
:1049700051EC1C0BFBF78EFD41EC180BFBF789FE8D
:1049800005463846FBF767FE41EC1C0B9FED530BC9
:1049900053EC102BFBF77EFD41EC1B0B9FED590BED
:1049A00053EC102BFBF7E8FD41EC1A0BB0EE4A0A72
:1049B000F0EE6A0AFEF724FBB0EE409AF0EE609A41
:1049C0009FED540B53EC102B51EC190BFBF762FDD0
:1049D00041EC180BFBF75DFE03903846FBF73BFEFE
:1049E00041EC1C0B9FED3D0B53EC102BFBF752FDE4
:1049F00041EC1B0B9FED430B53EC102BFBF7BCFD65
:104A000041EC1A0BB0EE4A0AF0EE6A0AFEF794FA8D
:104A1000B0EE408AF0EE608A9FED3E0B53EC102B17
:104A200051EC180BFBF736FD41EC190BFBF731FE8F
:104A300002904FF4784039490880062099FBF0F045
:104A4000C8301FFA80FA062098FBF0F0C0F164002D
:104A50001FFA80FBC9F1C80291B208F1640290B25A
:104A600053465A46FCF7E0FA1F202C490880AA4614
:104A70004FEAE57C05EB9C7C4FEAAC0C0CF1C80CD2
:104A80001FFA8CF3A3464FEAE47C04EB9C7C4FEACC
:104A9000AC0CCCF1640C1FFA8CF2C5F1C80C1FFAF7
:104AA0008CF104F1640C1FFA8CF0FCF7BDFA4FF4A2
:104AB000FC601A4908800321029890FBF1F0C8308D
:104AC0001FFA80FA039890FBF1F0C0F164001FFA1E
:104AD00080FB029AC2F1C80291B221E04AD8124D7D
:104AE000FB2109400000000000209C400000000065
:104AF0000080764000000000000018400000000028
:104B000000004E400000000000003E400000000099
:104B10000080564000000000000059401C000020AA
:104B2000039A643290B253465A46FCF77DFA04B0B9
:104B3000BDEC108BBDE8FE8F2DE9F74F2DED108BEE
:104B400084B00E4617463846FBF785FD41EC1D0B39
:104B50009FEDFE0B53EC102BFBF79CFC41EC1C0B68
:104B60009FEDFC0B53EC102BFBF706FD41EC1A0BF1
:104B70003046FBF770FD41EC1F0B9FEDF40B53EC3F
:104B8000102BFBF787FC41EC1E0B9FEDF40B53EC55
:104B9000102BFBF7F1FC41EC1C0B1498FBF75BFDB1
:104BA00041EC1F0B9FEDE90B53EC102BFBF772FC54
:104BB00041EC1E0B9FEDEB0B53EC102BFBF7DCFCD9
:104BC00041EC1D0B53EC1C2BFBF7BDFB41EC1B0B0D
:104BD00053EC1A2BFBF7B7FB41EC190BB0EE490A6B
:104BE000F0EE690AFEF70CFA8DED000B9FEDDF0B7E
:104BF00053EC102B9DED000B51EC100BFBF74AFC16
:104C000041EC180BFBF745FD80463846FBF723FDCA
:104C100041EC1D0B9FEDCD0B53EC102BFBF73AFC39
:104C200041EC1C0B9FEDCB0B53EC102BFBF7A4FCC2
:104C300041EC1A0B3046FBF70EFD41EC1F0B9FEDCC
:104C4000C30B53EC102BFBF725FC41EC1E0B9FED27
:104C5000C30B53EC102BFBF78FFC41EC1C0B14988F
:104C6000FBF7F9FC41EC1F0B9FEDB80B53EC102B3D
:104C7000FBF710FC41EC1E0B9FEDBA0B53EC102B15
:104C8000FBF77AFC41EC1D0B53EC1C2BFBF75BFB99
:104C900041EC1B0B53EC1A2BFBF755FB41EC190BAA
:104CA000B0EE490AF0EE690AFEF746F9B0EE408A26
:104CB000F0EE608A9FEDAD0B53EC102B51EC180B0E
:104CC000FBF7E8FBCDE900019DED000B51EC100B6B
:104CD000FBF7DFFC81463846FBF7BDFC41EC1E0BC1
:104CE0009FED9A0B53EC102BFBF7D4FB41EC1D0B03
:104CF0009FED980B53EC102BFBF73EFC41EC1B0B8C
:104D00003046FBF7A8FC41EC1E0B9FED900B53ECDB
:104D1000102BFBF7BFFB41EC1D0B9FED960B53ECEB
:104D2000102BFBF729FC41EC1C0B53EC1B2BFBF766
:104D30000AFB41EC1A0BB0EE4A0AF0EE6A0AFEF7E3
:104D40005FF9B0EE409AF0EE609A9FED8C0B53EC59
:104D5000102B51EC190BFBF79DFB41EC180BFBF7EB
:104D600098FC04463846FBF776FC41EC1E0B9FEDA1
:104D7000770B53EC102BFBF78DFB41EC1D0B9FEDDC
:104D8000750B53EC102BFBF7F7FB41EC1B0B30467C
:104D9000FBF761FC41EC1E0B9FED6C0B53EC102BF1
:104DA000FBF778FB41EC1D0B9FED720B53EC102BC6
:104DB000FBF7E2FB41EC190B53EC1B2BFBF7C3FA9F
:104DC00041EC180BB0EE480AF0EE680AFEF7B4F8B2
:104DD000B0EE40CAF0EE60CA9FED680B53EC102BAA
:104DE00051EC1C0BFBF756FB41EC1A0BFBF751FC8B
:104DF00005463846FBF72FFC41EC1C0B9FED530B8F
:104E000053EC102BFBF746FB41EC1B0B9FED590BB2
:104E100053EC102BFBF7B0FB41EC1A0BB0EE4A0A37
:104E2000F0EE6A0AFEF7ECF8B0EE409AF0EE609A07
:104E30009FED540B53EC102B51EC190BFBF72AFB95
:104E400041EC180BFBF725FC03903846FBF703FCFD
:104E500041EC1C0B9FED3D0B53EC102BFBF71AFBA9
:104E600041EC1B0B9FED430B53EC102BFBF784FB2A
:104E700041EC1A0BB0EE4A0AF0EE6A0AFEF75CF853
:104E8000B0EE409AF0EE609A9FED3E0B53EC102B83
:104E900051EC190BFBF7FEFA41EC180BFBF7F9FB91
:104EA0000290002039490880062099FBF0F0C830B4
:104EB0001FFA80FA062098FBF0F0C0F164001FFA98
:104EC00080FBC9F1C80291B208F1640290B2534666
:104ED0005A46FCF7A9F8AA464FEAE57C05EB9C7C0C
:104EE0004FEAAC0C0CF1C80C1FFA8CF3A3464FEA46
:104EF000E47C04EB9C7C4FEAAC0CCCF1640C1FFA14
:104F00008CF2C5F1C80C1FFA8CF104F1640C1FFA85
:104F10008CF0FCF789F80321029890FBF1F0C8307F
:104F20001FFA80FA039890FBF1F0C0F164001FFAB9
:104F300080FB029AC2F1C80291B2039A643290B225
:104F400053465A46FCF770F804B021E04AD8124D97
:104F5000FB2109400000000000209C4000000000F0
:104F600000807640000000000000184000000000B3
:104F700000004E400000000000003E400000000025
:104F80000080564000000000000059401C00002036
:104F9000BDEC108BBDE8FE8F82B0CDE9000121F0A1
:104FA000004001909DED000B02B051EC100B7047DA
:104FB00070B504460D46E1B20548FDF77AFF00BF23
:104FC00080210348FDF7A9FE0028F9D0204670BDD6
:104FD000001001402DE9F04706460F4691469846DD
:104FE00000244D460320A0EB490A52E01FFA88F244
:104FF0007B1999B2331998B2FCF708F81FFA88F2B6
:105000007B1B99B2331998B2FCF700F81FFA88F2AB
:105010007B1999B2331B98B2FBF7F8FF1FFA88F29D
:105020007B1B99B2331B98B2FBF7F0FF1FFA88F293
:105030003B1999B2731998B2FBF7E8FF1FFA88F28F
:105040003B1B99B2731998B2FBF7E0FF1FFA88F285
:105050003B1999B2731B98B2FBF7D8FF1FFA88F27D
:105060003B1B99B2731B98B2FBF7D0FFBAF1000F4C
:1050700006DA2046641C062101EB8000824408E029
:105080002046641C29466D1E401A0A2101EB80004F
:105090008244AC42AADDBDE8F08700009CB06422E7
:1050A000344903A8FBF73DF900F0B2F9401C10B9F0
:1050B00031A0FBF71BFCFCF7B5F9002032A1CDE9CC
:1050C000000132234FF47A723349029033A000F08A
:1050D000B1FD0546294633A0FBF708FC002032A1AC
:1050E00001223223CDE9002102904FF47A72304937
:1050F00030A000F09FFD00202BA102223223CDE939
:10510000002102904FF4FA722C492DA000F092FD7C
:10511000002025A103223223CDE9002102904FF483
:10512000FA72294929A000F085FD00201EA1042261
:105130003223CDE9002102904FF4FA72254926A0CE
:1051400000F078FD00240BE0254850F82400426868
:10515000234850F82400017822A0FBF7C7FB641C09
:1051600024488068A042EFD802E0642000F0DAFF13
:10517000FBE7000064640008CFB5CDB3B3F5CABC4B
:10518000BBAFCAA7B0DC000048656C6C6F205461EF
:10519000736B310A00000000212500085461736B15
:1051A000310000002564000048656C6C6F00000051
:1051B0003D2600085461736B32000000D5280008BA
:1051C0005461736B33000000612A00085461736BF3
:1051D00034000000CD2A00085461736B35000000D4
:1051E0006854002049443A2564204E616D653A2593
:1051F000730A00005C54002010B54FF47A71A820A7
:10520000FCF7B2FE401C10B94FF0FF3010BD00207B
:10521000FCE7000010B5002478480068401C77497E
:1052200008607748007830B976480068006B401C09
:10523000744909680863714800684FF47A71B0FBDB
:10524000F1F201FB120020BB00206F49087000241E
:105250001BE06E4850F82400006B0A21B0FBF1F00F
:105260006A4951F8241081F834006748007867498A
:1052700051F8241091F83410084463490870002054
:10528000624951F824100863641C5D488068A0429C
:10529000DFD85A484068D8B159480078C0B9574853
:1052A0004068401E554948600846406880B904205F
:1052B0005449096808725248007830B900BF01208B
:1052C0004F490870FBF708FB02E001204B4948609A
:1052D00000248CE04D4850F82400007A062840D184
:1052E0004A4850F82400C06A401E484951F824102A
:1052F000C862464850F82400C06A30BB4048007875
:1053000028B10420414951F82410087229E03F488F
:1053100050F8240090F920003A49096891F92010CA
:10532000884219DA0420394951F8241008723549A5
:10533000096808723248007840B93148446000BFBB
:1053400001202F490870FBF7C7FA0AE001202F4916
:1053500051F82410C86204E004202C4951F82410AC
:1053600008722A4850F824004069006828B127488C
:1053700050F82400007A07280BD0244850F8240065
:10538000007E002832DD214850F82400007A0828E9
:105390002CD11B48007828B104201C4951F8241056
:1053A000087223E0194850F8240090F920001549AC
:1053B000096891F92010884213DA0420134951F842
:1053C000241008720F49096808720D48007868B9FE
:1053D0000B48446000BF012009490870FBF77CFAC4
:1053E00004E00420094951F824100872641C0448A0
:1053F0008068A0423FF66EAF10BD0000280000207C
:105400005C5400203C000020300000206854002044
:1054100010B500BF4FF4A060FCF770F808214FF002
:10542000FF30FCF775F80C216FF00100FCF770F805
:1054300000BF4FF4E130FDF701FC00F0BBF8401C69
:1054400030B917A11AA0FBF751FA4FF0FF3010BD89
:1054500000F0D2F9401C30B919A115A0FBF746FAAB
:105460004FF0FF30F3E700F085FB401C30B918A186
:105470000FA0FBF73BFA4FF0FF30E8E7FFF7BCFE69
:10548000401C30B917A10AA0FBF730FA4FF0FF30EB
:10549000DDE719A106A0FBF729FA0020D7E70000F5
:1054A000C4DAB4E6B3F5CABCBBAFB4EDCEF30000CA
:1054B0000A6F734D61696E3A2025730A000000007F
:1054C000D3CACFE4B3F5CABCBBAFB4EDCEF3000092
:1054D000C8CECEF1CFB5CDB3B3F5CABCBBAFB4ED3A
:1054E000CEF30000CFB5CDB3CAB1D6D3B3F5CABCA5
:1054F000BBAFB4EDCEF300006F7353746172745F91
:105500004F4B21004FF4A0407047000070B5044697
:1055100014F8030C012826D114F8010C14F8021C0D
:1055200040EA0120255C012D01D0022D04D102208A
:1055300004F8030C002070BD14F8010C14F8021CD0
:1055400040EA012020440B490968884204D1022026
:1055500004F8030C0020EEE707A10CA0FBF7C6F946
:105560004FF0FF30E7E70DA108A0FBF7BFF94FF0C0
:10557000FF30E0E734000020B8C3C4DAB4E6BFE986
:10558000D6B8D5EBB2BBD5FDC8B700000A6F734DD6
:10559000656D6F72793A2025730A0000CACDB7C5D0
:1055A000C4DAB4E6BFE9B5C4D6B8D5EBB2BBD5FD15
:1055B000C8B7000003480449086002200149087088
:1055C000002070475C000020340000202DE9F041ED
:1055D00004463E480668056834B93DA144A0FBF77F
:1055E00085F90020BDE8F081384800682044C01CDF
:1055F0004349884211D80120344909680870200ABB
:10560000324909684870314909688C702F48006830
:105610002044C01C2D49086056E03A4D002700BFC9
:105620002878022826D12FB92E46A878697840EA32
:10563000012706E0A878697840EA01203844C01CB8
:1056400087B2A7422AD3381B03280CD9022031196C
:10565000C870381BC01E010A30190171381BC01EEA
:10566000C1B23019417101203070200A7070B470DD
:10567000F01CB7E7002F01DD00270FE02878012894
:105680000CD021A11AA0FBF731F900F059F880469F
:10569000414622A0FBF72AF90020A3E7A878697801
:1056A00040EA01202844C51C15488542B8D316A1FC
:1056B0000FA0FBF71BF900F043F88046414617A006
:1056C000FBF714F900208DE7F01C8BE73400002075
:1056D000B1D8D0EBC9EAC7EBC4DAB4E6B4F3D0A1D1
:1056E000B2BBB5C3B5C8D3DAC1E3212100000000C5
:1056F0000A6F734D656D6F72793A2025730A000049
:105700005C5000205C000020C4DAB4E6B2BBD7E3F2
:10571000A3ACB7D6C5E4CAA7B0DC00000A6F734DCE
:10572000656D6F72793A20CAA3D3E0C4DAB4E6B4E7
:10573000F3D0A120256420D7D6BDDA0A00000000EE
:1057400000B50022124913480068401A032819DDE9
:1057500000BF0878022805D188784B7840EA0320FA
:10576000C01C024488784B7840EA03200844C11CDE
:10577000084800688142ECD30748064B1B68C01AF2
:10578000024402E0FFF7BEFE00BDD01EFCE70000B1
:105790005C000020340000205C50002000221349EF
:1057A00000BF087802280BD188784B7840EA0320A4
:1057B000C01C904204D988784B7840EA0320C21C70
:1057C00088784B7840EA03200844C11C08480068E8
:1057D0008142E6D30748064B1B68C01A904203D9A2
:1057E0000448034B1B68C21AD01E70475C0000209F
:1057F000340000205C500020002105E00020084A11
:1058000042F82100481CC1B2FF29F7D3044850F8E0
:10581000210010B14FF0FF3070470020FCE700007E
:105820005C50002070B5054621480068007E0028C5
:105830003BDD002437E01E480068007E1D4951F81A
:105840002410097A88422CD1194800680078194937
:1058500051F824100978884223D1164850F82400C2
:1058600046680020134951F8241008721048006857
:10587000007E002806DD0E480068007E401E0C49B0
:10588000096808760A480068007E2870094951F8BE
:105890002400FFF73BFE0020064941F82400304673
:1058A00070BD601CC4B2FF2CC5D30020F8E7000017
:1058B0003C0000205C50002010B504460B480068F6
:1058C000007E78B900BF0A4800780028FBD1082084
:1058D00006490968087200BF012005490870FAF7F7
:1058E000FBFF00BF2046FFF79DFF10BD3C000020DE
:1058F0005C5400202DE9F04781460D46274880681A
:10590000A84203D84FF0FF30BDE8F08700243FE005
:10591000234850F82400C0BB0C20FFF757FE074671
:1059200017B94FF0FF30EFE71D4840F8247050F8EA
:10593000240005701A4850F82400C0F804904FF075
:10594000000800260FE0164850F826000078A8420C
:1059500007D1134850F8260018B108F1010000F0F3
:10596000FF08701CC6B2FF2EEDD30D4850F824007E
:1059700080F808800B4850F82500007E401C09493B
:1059800051F8251008760020BEE7FFE7601CC4B27E
:10599000FF2CBDD34FF0FF30B6E700005C54002071
:1059A0005C5000206854002010B50446207901287E
:1059B00006D0022838D003284ED004286AD167E0E8
:1059C000206850BB3548006890F920006179344A5E
:1059D00052F8211091F9201088420BDA6079FE28E4
:1059E00008D22E48006890F82000617952F8211002
:1059F00081F8200000BF2B4800780028FBD1072049
:105A000026490968087225480068446100BF0120E2
:105A100024490870FAF760FF00BF2048006800784A
:105A200060710020206010BD206890B900BF1D4843
:105A300000780028FBD10720184909680872174828
:105A40000068446100BF012016490870FAF744FF5E
:105A500000BF00202060E6E7206890B900BF114831
:105A600000780028FBD107200C49096808720B4810
:105A70000068446100BF01200A490870FAF72CFF52
:105A800000BF206810B12068401E20600020CAE7D7
:105A90000020C8E74FF0FF30C5E700003C000020C1
:105AA000685400205C54002001460879012804D085
:105AB000022815D0032821D11BE0086868B91148D5
:105AC000006890F821000F4A126882F82000012037
:105AD0000860FE204871002070474FF0FF30FBE760
