:10000000021C73758CF8758ACD22220221FCCF1553
:10001000291529A829EEF608EFF615291529A8298A
:10002000222222021FBF9008A27401F0A3F07F1BBE
:100030000220C40227B842089C000044089800002F
:1000400000004208A0000042089E00004208A200F2
:10005000004101AB004101AC00410000004101AE94
:10006000004101AF004101B3004101A8004101ADD1
:10007000004101B0004201B100004201A90000416D
:10008000006700664001B4000000000000000000AE
:100090000000000000000000000000000000000060
:1000A0000000000000000000000000000000000050
:1000B0000000000000000000000000000000000040
:1000C0000000000000000000000000000000000030
:1006C0000000000000000060660001000000000063
:1006D000000000000000000000000000000000001A
:1006E000000000000000000000000000000000000A
:1006F00000000000000000000000000000000000FA
:1007000000000000000000000000000000000000E9
:1007100000000000000000000000000000000000D9
:1007200000000000000000000000000000000000C9
:1007300000614000680000000000000000000000B0
:1007400000000000000000000000000000000000A9
:100750000000000000000000000000000000000099
:100760000000000000000000000000000000000089
:100770000000000000000000000000000000000079
:100780000000000000000000000000000000000069
:100790000000000000000000000000000000000059
:1007A0000000000000000000000000000000000049
:1007B0000000000000000000000000000000000039
:1007C0000000000000000000000000000000000029
:1007D0000000000000000000000000000000000019
:1007E0000000000000000000000000000000000009
:1007F00000000000000000000000000000000000F9
:1008000000000000000000000000000000000000E8
:1008100000000000000000000000000000000000D8
:1008200000000000000000000000000000000000C8
:1008300000000000000000000000000000000000B8
:1008400000000000000000000000000000000000A8
:100850000000000000000000000000000000000098
:100860000000000000000000000000000000000088
:100870000000000000602207F400000000000000FB
:100880000000000000000000000000000000000068
:10089000000000000000000000000011080000003F
:1008A0000000000000000000000000000000608068
:1008B0000818000000000000000000000000000018
:1008C0000000000000000000000000000000000028
:1008D0000000000000000000000000000000000018
:1008E0000000000000000000000000000000000008
:1008F00000000000000000000000000000000000F8
:1009000000000000000000000000000000000000E7
:1009100000000000000000000000000000000000D7
:1009200000000000000000000000000000000000C7
:10093000000041081700410816004108A40000E526
:100940002924FCF529F8120FCE121F1BC0E0E9C0C4
:10095000E0EAC0E0EBC0E0A829120FC2D0E0FBD073
:10096000E0FAD0E0F9D0E0121F0E5022121F1DC095
:10097000E0E9C0E0EAC0E0EBC0E0A829120FC2D075
:10098000E0FBD0E0FAD0E0F9D0E0F8120CDB121F67
:100990001BC0E0E9C0E0EAC0E0EBC0E0A829120F0C
:1009A000C2D0E0FBD0E0FAD0E0F9D0E0121EFA129B
:1009B0001F3E121F0F5027121F1DC0E0E9C0E0EAC2
:1009C000C0E0EBC0E0A829120FC2D0E0FBD0E0FAF3
:1009D000D0E0F9D0E0121EFA121F40120CCE121F06
:1009E0003EE8C0E0E9C0E0EAC0E0EBC0E0A82912C0
:1009F0000FC2D0E0FBD0E0FAD0E0F9D0E0121EFA4E
:100A0000121F47121F0F5028121F40E8C0E0E9C014
:100A1000E0EAC0E0EBC0E0A829120FC2D0E0FBD0B2
:100A2000E0FAD0E0F9D0E0121EFA121F49120CCE03
:100A3000121F47E8C0E0E9C0E0EAC0E0EBC0E0A870
:100A400029120FC2D0E0FBD0E0FAD0E0F9D0E012DA
:100A50001EFA121F50121F0F502B121F49E8C0E040
:100A6000E9C0E0EAC0E0EBC0E0A829120FC2D0E084
:100A7000FBD0E0FAD0E0F9D0E0121EFA7B807A9643
:100A80007998120CB3121F50E8C0E0E9C0E0EAC048
:100A9000E0EBC0E0A829120FC2D0E0FBD0E0FAD012
:100AA000E0F9D0E0121EFA121F59121F0F502B123C
:100AB0001F50E8C0E0E9C0E0EAC0E0EBC0E0A829D0
:100AC000120FC2D0E0FBD0E0FAD0E0F9D0E0121E65
:100AD000FA7B407A42790F120CB3121F59E8C0E03A
:100AE000E9C0E0EAC0E0EBC0E0A829120FC2D0E004
:100AF000FBD0E0FAD0E0F9D0E0121EFA121F251266
:100B00001F0F5028121F59E8C0E0E9C0E0EAC0E01A
:100B1000EBC0E0A829120FC2D0E0FBD0E0FAD0E091
:100B2000F9D0E0121EFA121F25120CDB121F25E865
:100B3000C0E004C0E0EAC0E0EBC0E0A829120FC2A8
:100B4000D0E0FBD0E0FAD0E0F9D0E0121EFAE47B6E
:100B5000107A27121F0D502A09121F27E8C0E0043F
:100B6000C0E0EAC0E0EBC0E0A829120FC2D0E0FB71
:100B7000D0E0FAD0E0F9D0E0121EFA7B107A27120A
:100B80000CC0E47B107A27F9C0E0C0E0EAC0E0EBDB
:100B9000C0E0A829120FC2D0E0FBD0E0FAD0E0F903
:100BA000D0E0121EFAE47BE87A03121F0D5029E40C
:100BB0007B107A27C0E0C0E0EAC0E0EBC0E0A829E3
:100BC000120FC2D0E0FBD0E0FAD0E0F9D0E0121E64
:100BD000FA7BE87A03120CC0E47BE87A03F9C0E000
:100BE000C0E0EAC0E0EBC0E0A829120FC2D0E0FBF1
:100BF000D0E0FAD0E0F9D0E0121EFA7B64121F0BAD
:100C00005027E47BE87A03C0E0C0E0EAC0E0EBC034
:100C1000E0A829120FC2D0E0FBD0E0FAD0E0F9D072
:100C2000E0121EFA7B64120CA4E47B64FAF9C0E0C3
:100C3000C0E0C0E0EBC0E0A829120FC2D0E0FBD0BA
:100C4000E0FAD0E0F9D0E0121EFA7B0A121F0B5036
:100C500024E47B64C0E0C0E0C0E0EBC0E0A829125F
:100C60000FC2D0E0FBD0E0FAD0E0F9D0E0121EFADB
:100C70007B0A120CA4E47B0AFAF9C0E0C0E0C0E0F1
:100C8000EBC0E0A829120FC2D0E0FBD0E0FAD0E020
:100C9000F9D0E0121EFAEF2430FF1225B4E5292422
:100CA00004F52922E4FAF9F8120F1FEF2430FF129D
:100CB00025B4227800120F1FEF2430FF1225B42232
:100CC000E4F9F8120F1FEF2430FF1225B4227B0045
:100CD000120F1FEF2430FF1225B422120F1FEF2432
:100CE00030FF1225B422E709F608DFFA8046E7094B
:100CF000F208DFFA803E88828C83E709F0A3DFFAEE
:100D00008032E309F608DFFA8078E309F208DFFAB7
:100D1000807088828C83E309F0A3DFFA8064898283
:100D20008A83E0A3F608DFFA805889828A83E0A3E9
:100D3000F208DFFA804C80D280FA80C680D48069C5
:100D400080F28033801080A680EA809A80A880DAC2
:100D500080E280CA803389828A83ECFAE493A3C854
:100D6000C582C8CCC583CCF0A3C8C582C8CCC58316
:100D7000CCDFE9DEE7800D89828A83E493A3F6085D
:100D8000DFF9ECFAA9F0EDFB2289828A83ECFAE024
:100D9000A3C8C582C8CCC583CCF0A3C8C582C8CCC3
:100DA000C583CCDFEADEE880DB89828A83E493A313
:100DB000F208DFF980CC88F0EF60010E4E60C38846
:100DC000F0ED2402B4040050B9F582EB2402B4041F
:100DD0000050AF2323458223900D3673BB01068953
:100DE000828A83E0225002E722BBFE02E32289824C
:100DF0008A83E49322BB010989828A83F8E028F080
:100E000022500327F722BBFE05F8E328F3228A834A
:100E10008982F8E4932822EF8DF0A4A8F0CF8CF01B
:100E2000A428CE8DF0A42EFE22BC000BBE0029EF1C
:100E30008DF084FFADF022E4CCF875F008EF2FFFC1
:100E4000EE33FEEC33FCEE9DEC984005FCEE9DFE8F
:100E50000FD5F0E9E4CEFD22EDF8F5F0EE8420D2D6
:100E60001CFEADF075F008EF2FFFED33FD40079845
:100E70005006D5F0F222C398FD0FD5F0EA22C5F056
:100E8000F8A3E028F0C5F0F8E5821582700215831A
:100E9000E038F022E88FF0A4CC8BF0A42CFCE98E93
:100EA000F0A42CFC8AF0EDA42CFCEA8EF0A4CDA8D2
:100EB000F08BF0A42DCC3825F0FDE98FF0A42CCDDB
:100EC00035F0FCEB8EF0A4FEA9F0EB8FF0A4CFC5BB
:100ED000F02ECD39FEE43CFCEAA42DCE35F0FDE445
:100EE0003CFC2275F008758200EF2FFFEE33FECD3B
:100EF00033CDCC33CCC58233C5829BED9AEC99E5DA
:100F00008298400CF582EE9BFEED9AFDEC99FC0F69
:100F1000D5F0D6E4CEFBE4CDFAE4CCF9A88222B831
:100F200000C1B90059BA002DEC8BF084CFCECDFCB6
:100F3000E5F0CBF97818EF2FFFEE33FEED33FDEC43
:100F400033FCEB33FB10D703994004EB99FB0FD82C
:100F5000E5E4F9FA227818EF2FFFEE33FEED33FDCA
:100F6000EC33FCC933C910D7059BE99A4007EC9BC9
:100F7000FCE99AF90FD8E0E4C9FAE4CCFB2275F059
:100F800010EF2FFFEE33FEED33FDCC33CCC833C86A
:100F900010D7079BEC9AE899400AED9BFDEC9AFC70
:100FA000E899F80FD5F0DAE4CDFBE4CCFAE4C8F91F
:100FB00022EB9FF5F0EA9E42F0E99D42F0E89C4565
:100FC000F022E6FC08E6FD08E6FE08E6FF22ECF665
:100FD00008EDF608EEF608EFF622ECF0A3EDF0A32C
:100FE000EEF0A3EFF022A42582F582E5F03583F53B
:100FF0008322900067E060030211711200039008E1
:101000009DE004F0700690089CE004F0900898E0E1
:10101000FCA3E0FDA3E0FEA3E02401FFE43EFEE428
:101020003DFDE43CFC900898120FDAE4F5199000BD
:1010300000E0FFE519D39F5056122313E0FEA3E012
:10104000D39400EE94004043122330122327403BF8
:1010500012231374FFF5F0120E7E122313E0FEA389
:10106000E04E7027122330E0FDAF1912151A75F00B
:101070000AE519A4246EF582E5F03400F583E0FE5C
:10108000A3E0FF122313EEF0A3EFF00519809F9069
:10109000089EE07002A3E060030211639001B012A9
:1010A0002327402912232440249001B0E014F0E0CB
:1010B000649B60030211711223E5800C9001B3E080
:1010C000FF9001AEE06F704D12211580EF9001ABE3
:1010D000E0C3941F74809480500D9001ACE0C394E1
:1010E0001F7480948040081223E51221158026D3B6
:1010F000900002E09400900001E0940050099007F5
:10110000F4E012232940151224BE50659001ADE091
:1011100070031221159000677401F02212232440FD
:101120003E9008A1E024FFF09008A0E034FFF0E03A
:101130007002A3E0703B1223411223E5E49001AE5C
:10114000F090006CE0FFA3E09001B1CFF0A3EFF0CE
:10115000E49001A8F09001AD04F0900067F0221235
:1011600023412290089FE024FFF090089EE034FF86
:10117000F022900067E070030212C89001B3E0FF14
:101180009001AEE06F70030212C5D014D014D014D9
:10119000D013D012D011D010D00FD00ED00DD00C53
:1011A000D00BD00AD009D008D015D016E49001B0E9
:1011B000F0900067E064017052F51912206550103C
:1011C00074082519F8E6FF122019EFF0051980EBD5
:1011D0009001AFE0FFAD81C3ED9FFFE49400FED32B
:1011E000EF9400EE648094804016E5199432748088
:1011F0009480500CD009122019E509F0051980D00F
:10120000E51914FF122037EFF08009122037E4F0BF
:101210009001A8F09001AEE09001B3F012203BE005
:1012200070349001B1E0FCA3E0FDECF515CFEDCFFB
:10123000EFF5169001B3E0D394007480948040568B
:101240009001A9E0FEA3E0FFCDEFCDF518EEF51774
:10125000C018C0178040122037E0FFD3940074807C
:10126000948040328F19D3E519940E748094804095
:101270000C122019E0F508C008151980E9E4F519E9
:101280001220655011122019E0FF74082519F8C6C4
:10129000EFC6051980EA12204A8508E08509F08525
:1012A0000A83850B82850CD0850D00850E01850F84
:1012B0000285100385110485120585130685140720
:1012C000C016C0153212204A227A2879341213E649
:1012D0007F361226CC7F2E1226CC7F381226CC7F6A
:1012E0000A1226CC7A2879481213E67F361226CCC9
:1012F0007BFF7A28796012228F7BFF7A28797C1213
:10130000228F7BFF7A28798D12228FE4F51A121B27
:101310004C5033E51A2465FFE434218F82F583E4D1
:1013200093FF3395E0FEE51A24F1FDC8EDC8E6FD14
:101330003395E0FCEF2DFFEE3CFE3395E0FDFC1213
:10134000093F051A80C87F0A1226CC7BFF7A2879CC
:101350009612228FE4F51A121B4C5017E51A24F14D
:10136000FFC8EFC8E6FF3395E0FEFDFC12093F051C
:101370001A80E47F0A1226CC7BFF7A28799F1222FA
:101380008F121B33CEC313CE13D8F9F51AD3945052
:101390007480948040087BFF7A2879A9803DD3E54A
:1013A0001A943C7480948040087BFF7A2879AE8040
:1013B0002AD3E51A94287480948040087BFF7A2809
:1013C00079B38017D3E51A9414748094807BFF401E
:1013D000067A2879B880047A2879BD12228F7F0A8C
:1013E0001226CC0218AA7BFF12228F7F311226CC44
:1013F0007F2E1226CC22E4F51AF51BF51CF51D7B79
:10140000FF7A28799F12228F7BFF7A2A794712224E
:101410008F121B33CEC313CE13D8F9F51B8E1A05CA
:101420001BE51B7002051AAE1A1214D67F25122571
:10143000B47BFF7A2A795112228FE4F51AF51B90BA
:10144000006A121B0AFEA3E0D39400EE9400500F32
:10145000900069121B0AD3940074809480400805A0
:101460001DE51D7002051C051BE51B7002051A64B5
:1014700020451A70CAAE1CAF1D7C007D64120E1789
:101480007805EFCEC313CE13D8F9F51B8E1A1214BC
:10149000D67F251225B47BFF7A2A795E12228FE54A
:1014A000C17BFF30E5067A2A796B80047A2A79704D
:1014B00012228F7BFF7A2A797512228F900898E08A
:1014C000FCA3E0FDA3E0FEA3E0FF12093F7BFF7A4F
:1014D0002A798602228FFF7C007D64120E29EF2478
:1014E00030FF1225B4AE1AAF1B7C007D64120E29AA
:1014F0007E007F0ACFCDCFCECCCE120E29EF243086
:10150000FF1225B4AE1AAF1B7C007D0A120E29CF44
:10151000EDCFEF2430FF1225B422121653152915F2
:10152000299001A8E0FF1216EAD39F40469001B32C
:10153000E0121621403D90089EE07002A3E0703357
:101540001223E5A8290808E69001AEF0E0FF121684
:101550000DE09001A8F0EF12167CE0FFA3E09001EF
:10156000B1CFF0A3EFF09001AD7401F0900067F0FF
:10157000021602121E0D9001ABE01216CD400302BE
:101580001602A829E4F6A829E6FF1216CD50731218
:10159000166DE0FFE5292403F8EFC3964005A8295E
:1015A0000680E39001ABE0A82908F6C9E529C9A89F
:1015B0002908E6FFD397402CEF75F003A4FFAEF0A7
:1015C00024FEF974FF3EFA7B01EBC0E0EAC0E0E9DB
:1015D000C0E01216BBD0E0F9D0E0FAD0E01216D588
:1015E000081680C71216E0FD121661F583E4F0A319
:1015F000EFF01216EAFFED12166EEFF09001ABE07D
:1016000004F0E5292404F529229001AEE075F00AE2
:10161000A42469F582E5F03400F583229007F4E014
:10162000FFD394007480948022F583E4F0A3F075D6
:10163000F00AEFA4246EF582E5F03400F583E4F0BF
:10164000A3F022FF75F00AA42468F582E5F03400C7
:10165000F583221529A829EDF61529A829EFF622E8
:10166000FF75F003A42401F582E4340022EF75F045
:1016700003A42403F582E43400F5832275F00AA460
:10168000246CF582E5F03400F58322900000E0FF41
:10169000A829E6FE9F2275F00AA42470F582E5F0E1
:1016A00034002275F00AA4246AF582E5F0340022A1
:1016B00074F42EF582E43407F5832274012FF97453
:1016C000003EFAC8E9C8CCEACCCDEBCD22C39420C9
:1016D0007480948022FB7E007F03120DB6A829221D
:1016E000A8290808E6FFA829E622E5292403F8E648
:1016F000221529152912161C4047A82908EFF612B1
:10170000160DE09001A8F0A829E4F69001ACE0FFE6
:10171000A829E6FEC39F501474F52EF582E4340721
:10172000F583E0FD1216B0EDF00680DF1216B0E48E
:10173000F0D3EF12162240069001ACE014F002172D
:10174000C9121E0D900001E0FEA3E0FFD39400EE4D
:101750009400400DA82908EFF6A3E09001A8F080BE
:10176000129008A07403F0A374E8F0E49001A8F0CC
:10177000FF805BA829E4F69001ABE0FFA829E6FE14
:10178000C39F502BEE75F003A4FFAEF02404F97450
:10179000003EFA7B01EBC0E0EAC0E0E9C0E01216CF
:1017A000BBD0E0F9D0E0FAD0E01216D50680C8A888
:1017B00029E612166012163C12166DE4F09001AB89
:1017C000E01216214003E014F0A82908E6FF0529DD
:1017D0000529228B1A8A1B891CE4F520F521FFFEBE
:1017E000F522F523F524F525F526851D24851E25EE
:1017F000851F2685241D85251E85261F121AF91290
:1018000026B27E00EF251CF51CEE351BF51BE4FF10
:10181000121AF9120DDCFC6D603BEC121AD9400F64
:10182000AB1DAA1EA91F120DDCC3121B2C400A12ED
:101830001ACF4036121B2B5031121ACF4005121B03
:101840002B40057EFF7FFF22121B03121AD540A3F7
:10185000121B2B809E121B407401251FF51FE435BF
:101860001EF51E0FBF00010E80A6121B40AB1AFA18
:10187000A91C121B24C39431748094804027D3EF99
:10188000943974809480501DEF24D0FBEE34FFFA1D
:10189000AE22AF237C007D0A120E17EF2BF523EE4C
:1018A0003AF52280C5AE22AF23227A287918121980
:1018B000057B807A5179017800120F1F12093F7A57
:1018C000287925121905E47B107A0EF9F8120F1FFA
:1018D0007B1812194A7A2879291219237B3C12198C
:1018E0004A7A28792D121923CCE8CCCDE9CDCEEA5D
:1018F000CECFEBCF12093F7BFF7A28793112228FAE
:101900007F0A0226CC7BFF12228FE47BE87A03F960
:10191000F8900898E0FCA3E0FDA3E0FEA3E0FF122E
:101920000F1F227BFF12228FE47BE87A03F9F890E5
:101930000898E0FCA3E0FDA3E0FEA3E0FF120F1F68
:10194000E47B3CFAF9F8120F1F22E4FAF9F8120FBF
:101950001FCCE8CCCDE9CDCEEACECFEBCF12093FFC
:10196000227B017A0879187D281224E5751D0175FE
:101970001E08751F187BFF7A2A79881217D3EE602C
:1019800003021A0EEF14B412004003021A0E90194B
:101990009C75F003A4C58325F0C583730219D20298
:1019A00019D50219D80219DB0219DE0219E1021950
:1019B000E40219E70219EA0219ED0219F00219F31B
:1019C0000219F60219F90219FC0219FF021A0202A1
:1019D0001A050227430225510221640212C9022579
:1019E000720227280225F202264702266202274FAA
:1019F00002275B02270702250C02234C0222470222
:101A000026100218AA7BFF7A2A7988021E871227DD
:101A10008322EFC39408748094805050ED14601CAE
:101A200014602814603624036003021ABB122700D6
:101A30008002C333D8FCF452B752B8221227008078
:101A400002C333D8FCFEF452B7801D122700800277
:101A5000C333D8FCFE42B7EEF452B82212270080FE
:101A600002C333D8FCFE42B7EE42B822CEEDCEEE32
:101A70001460191460251460332403703E1226F597
:101A80008002C333D8FCF452B652B5221226F58038
:101A900002C333D8FCFEF452B6801D1226F5800234
:101AA000C333D8FCFE42B6EEF452B5221226F580BE
:101AB00002C333D8FCFE42B6EE42B522CF1529153B
:101AC00029A829EEF608EFF615291529A82922AB31
:101AD0001DAA1EA91F120DDCFDD3944074809480B2
:101AE00022900817E0C39480748094802274182593
:101AF0001AF582E43408F58322AB1DAA1EA91F1231
:101B00000DDCFDAB1AAA1BA91C2275F00AE51B12FD
:101B10000FE6E51A75F00AA42583F583E022AB1AD7
:101B2000AA1BA91C120DDCFF7E0022ED947B7480A1
:101B30009480229001ABE075F064A4AEF0780522A9
:101B40007401251CF51CE4351BF51B22C3E51A9412
:101B5000077480948022E58124FE9001AFF0E49028
:101B600001A8F09008A07403F0A374E8F0CE7427E5
:101B7000CECF7467CF12000A9001A9EEF0A3EFF068
:101B80007D037F04121A127D027F01121A1212279E
:101B90001812267D12262C1226EEE4F6081226EDE7
:101BA000F608F67B01FDFF121CFFCE7400CECF7449
:101BB000261226E276000876027B017D007F1B124A
:101BC0001CFF7F047E001226989008A2E06401703A
:101BD000097BFF7A2B790202228F7BFF7A2B791DFA
:101BE00012228F80FE900817E0701ACE741FCECF9D
:101BF0007462121ABC76000876057B0C7D007F1C8F
:101C0000121CFF8009900188E4F0A37405F090088D
:101C100016E060051200228047AF99C3EF94097463
:101C20008094804011AF99D3EF947F74809480505A
:101C300005121AE1402AC2ACE4900817F0121AE427
:101C40007BFF40097A2779DD12228F80137A27796A
:101C5000F512228F7BFF7A28790A12228F1227BC75
:101C6000121AE1500DE0FF04F074182F121AF1E57A
:101C700099F022787FE4F6D8FD758129021CBA021A
:101C8000206FE493A3F8E493A34003F68001F208E5
:101C9000DFF48029E493A3F85407240CC8C333C4A9
:101CA000540F4420C8834004F456800146F6DFE414
:101CB000800B0102040810204080900036E47E0171
:101CC0009360BCA3FF543F30E509541FFEE493A387
:101CD00060010ECF54C025E060A840B8E493A3FA99
:101CE000E493A3F8E493A3C8C582C8CAC583CAF025
:101CF000A3C8C582C8CAC583CADFE9DEE780BE15AE
:101D000029A829EBF6121653C2AF1216E0FE1216DE
:101D100044EFF075F00AEE121610EFF008E6FFFD42
:101D2000A829E6FE1216A3F583E4F0A3EDF0E52959
:101D30002405F8E6FC08E6FDEE12167CECF0A3EDB7
:101D4000F0EF600CA829E6FF1216961216298026DD
:101D50001216EAFC08E6FDEE121696F583ECF0A3E7
:101D6000EDF075F00AEEA4246EF582E5F03400F58E
:101D700083ECF0A3EDF0C312168B4002EEF0D2AF6D
:101D8000E5292407F529228B1A8A1B891CE4F520F2
:101D9000F51FF51EF51D122417D3EF942FEE648066
:101DA00094804060EF943AEE648094805056E47FD3
:101DB0000AFEFDFCAB20AA1FA91EA81D120E94EC62
:101DC000C0E0EDC0E0EEC0E0EFC0E0122417EF2469
:101DD000D0FFEE34FFFE3395E0FDFCD0E0FBD0E019
:101DE000FAD0E0F9D0E0F8EB2FF520EA3EF51FE954
:101DF0003DF51EE83CF51D7401251CF51CE4351B62
:101E0000F51B8092AF20AE1FAD1EAC1D2215299090
:101E10000001E07002A3E070099001ABE01216210E
:101E200050179001ABE0121660F583E0FCA3E04C84
:101E30007007D3EF1216CE404BE49001ABF0A82907
:101E40007620A829E6FFFD7C00C37480948040348E
:101E5000EF121661F583E0FEA3E04E601EE6FF750B
:101E6000F003A42404F582E43400F583E0FAA3E04F
:101E70004A7008EF049001ABF08009ED4C6005A8B2
:101E8000291680BE0529228B1A8A1B891CE4F51DA0
:101E90007BFF7A2A791912228F121B1E6053C3947A
:101EA00041748094804016D3EF947A74809480506B
:101EB0000C120DDCFF1225B4E4F51D8027121B1E49
:101EC000C3943074809480401BD3EF943974809411
:101ED000805011E51D700D7F0D1225B47F0A12256B
:101EE000B4751D017401251CF51CE4351BF51B8020
:101EF000A87BFF7A2A793802228FF8120F1FCCE8CC
:101F0000CCCDE9CDCEEACECFEBCF22E4FAF9F81270
:101F10000F1FE4FBFAF9F8C3020FB17B007AE479F2
:101F20000B7854E82279017BA07A86780022A829D0
:101F3000CBE6CB08E6FA08E6F9120DDCFF227B00BF
:101F40007ACA799A783B227B007AE179F578052282
:101F50007B807A9679987800227B407A42790F7854
:101F600000227F1C1220C4751D01751E08751F18E4
:101F70007BFF7A2779D81221B05005122593800E65
:101F8000900816E060051200218003121961E490A8
:101F90000817F0900817E0FF121AE5501C74182F6C
:101FA000121AF1E06013900817E02418121AF1E4F5
:101FB000F0900817E004F080DAE4900817F022C0EF
:101FC000E0C0F0C083C082C0D0E8C0E0E9C0E0EA71
:101FD000C0E0EBC0E0ECC0E0EDC0E0EEC0E0EFC080
:101FE000E0309807121BE5C298800B3099089008E2
:101FF000A47401F0C299D0E0FFD0E0FED0E0FDD0A3
:10200000E0FCD0E0FBD0E0FAD0E0F9D0E0F8D0D0AE
:10201000D082D083D0F0D0E0329001B3E075F032BE
:10202000A424B5F582E5F03401F583E5822519F5A0
:1020300082E43583F583229001B3E075F032A42465
:10204000B4F582E5F03401F58322E4900067F09066
:1020500001ADF09001AEF09001B074FFF0E4900893
:102060009EF0A3F022C3E519940F7480948022128D
:102070001B56CE7427CECF74B312000E76010876AD
:10208000F47B0A7D007F0F121CFFCE7422CECF742A
:10209000D412000E76010876F47B017D007F0B12CE
:1020A0001CFFCE7427CECF74CC12000EE4F608F6D7
:1020B0007B0A7DFF7F0C121CFFB2877FF47E01122A
:1020C000269880F51216591529C2AFA82908E612DC
:1020D0001643E4F075F00AEF121610E4F0EF121652
:1020E000A3121629EF12169612163CA8297620A8DC
:1020F00029E6121620401775F00AEF121647E07015
:1021000008E614900000F08005A8291680E1D2AFFF
:1021100005290529221216F19001AEEFF0E0FF1219
:10212000167CE0FDA3E09001B1CDF0A3EDF075F0D9
:102130000AEF121610E0C3940A74809480500612BD
:102140001609E014F0121609E070129001AEE012C8
:102150001643E0FE75F00AEF121610EEF09001AD96
:102160007401F0227B017A0879187D281226B2EFDB
:1021700004F51AC3E51A121AE65034121AEDE0FFFC
:102180006429602BEF645C701A7419251AF582E4D7
:102190003408F583E0B46E0B7F0A1226CC051A05CD
:1021A0001A8008121AEDE0FF1226CC051A80C4220C
:1021B0008B1A8A1B891CE4FFAB1AAA1BA91C120DDF
:1021C000DCFEFD3395E04D700CEFD39400748094E9
:1021D000804002D322AB1DAA1EA91F120DDC6E6027
:1021E00002C3227401251CF51CE4351BF51B740188
:1021F000251FF51FE4351EF51E0F80BCC0E0C0F0A2
:10220000C083C082C0D0E8C0E0E9C0E0EAC0E0EB33
:10221000C0E0ECC0E0EDC0E0EEC0E0EFC0E0120FC7
:10222000F2121172D0E0FFD0E0FED0E0FDD0E0FC71
:10223000D0E0FBD0E0FAD0E0F9D0E0F8D0D0D08206
:10224000D083D0F0D0E0327BFF7A2A790212228F3D
:10225000E4F51AC3E51A942074809480502C75F02C
:102260000AE51AA42468F582E5F03400F583E0D38A
:10227000940074809480400EAF1AE4FCFDFE1209B5
:102280003F7F2C1226CC051A80C97F0A0226CC1566
:102290002915291529A829C6EBC608C6EAC608C605
:1022A000E9C6121F2EFD3395E04D6021EFB40A09F7
:1022B0007F0D1225B47F0A8003121F2E1225B4A8A9
:1022C000290808740126F618E436F680D505290594
:1022D00029052922E4F527F528CE7422CECF74D41F
:1022E00012000EE4F608F67B017DFF7F0B121CFF47
:1022F0000528E528AE277002052714C39432EE9412
:10230000004007E4F527F528B2807F0A7E001225F9
:102310003080DD75F00AE519A42470F582E5F0340B
:1023200000F583229001B3E0D3940074809480225E
:1023300075F00AE519A42469F582E5F03400F58307
:10234000229008A07403F0A374E8F022122366120E
:1023500025D47BFF7A2979DA12228F12236612099B
:102360003F7F0A0226CC7B017A0879187D28122645
:10237000B27E0074192FF9EE3408FA7B01121D8722
:1023800022CE7424CECF7496122443761308768816
:1023900012245B121CFFCE7427CECF74711224431B
:1023A000760008760A122467121CFF7580FFC2832C
:1023B000C28222CE7424CECF746E122443761308C8
:1023C000768812245B121CFFCE7427CECF74711254
:1023D0002443760008760A122467121CFF7580FFDA
:1023E000C280C28522E4FFEF1216CD502974F42F6B
:1023F0001216B3E0FE9001B3E0FDEE6D6003EE70E7
:10240000129001ACE024F41216B3EDF09001ACE0B0
:1024100004F0220F80D122AB1AAA1BA91C120DDCDA
:10242000FF3395E0FE22740129F9E43AFA22120DF5
:10243000DCFFF5823395E0F583458222E5836480F5
:10244000948022CF15291529A829EEF608EFF61554
:10245000291529A82922760B0876B87B017D007FF3
:102460000A2276010876F47B017D007F0B22CE7470
:1024700023CECF7481122443122456121CFFCE7433
:1024800027CECF74CF122443122462121CFF758012
:10249000FFC284C28022CE7423CECF74B3122443F1
:1024A000122456121CFFCE7427CECF74D2122443AE
:1024B000122462121CFF7580FFC281C28322900029
:1024C00003E0FF9001A8E0FEC39F50012212161CFA
:1024D000401175F00AEF121610E0FFEEC39F500195
:1024E00022C322C32212242E6021EF6D601DD3E58A
:1024F00082946012243C400EE582947B12243C506E
:102500000574E0120DF512242680DA22CE7427CE4F
:10251000CF74C4121ABC76050876DC7B017D007F7F
:102520001E121CFF1227367BFF7A2979CB02228FDD
:102530009001B3E075F00A122318EEF0A3EFF090CB
:1025400001ADE070031221159000677401F0D28D87
:10255000227BFF7A2879C212228FCE7427CECF74C5
:10256000BC121ABC760B0876B87B097D007F1D0271
:102570001CFFCE7413CECF74F6121ABC7601087607
:10258000F47B017D007F1A121CFF7BFF7A2879D92A
:1025900002228F900816E07F0070027F01900816DB
:1025A000EFF07BFF60067A2979E680047A2979F4D6
:1025B00012228F22C299E49008A4F08F9930AC06C1
:1025C0009008A4E0700620ACF43099F1C299E49030
:1025D00008A4F022121659A829E612160DE0FD12E1
:1025E0001621400280047D09A829E6FF12151A056C
:1025F000292212277A7BFF7A29791612228F7BFFF4
:102600007A29792712228F7BFF7A29793F02228F3C
:102610007BFF7A2A790C12228F90089CE0FEA3E0BF
:10262000FFE4FCFD12093F7F0A0226CCCE7427CEC0
:10263000CF74C41226E276050876DC7B017D007F2C
:102640001E121CFF0227367BFF7A29794A12228F3D
:102650001227C812279E7BFF7A29795D12228F02EA
:1026600027367BFF7A29797012228F1227C812270A
:10267000957BFF7A29798312228F0227367598502D
:10268000538EBF538EFE53890F758BFC758DFFC221
:10269000ABD28ED2ACD2AF22CDEFCDCCEECCD3ED3F
:1026A0009400EC9400400A12278CED1D70F01C8001
:1026B000ED22E4FFEFC394FE74809480500D120D60
:1026C000DC6D7001220F12242680E9228F1BE51B8E
:1026D000B40A097F0D1225B47F0A8002AF1B1225B0
:1026E000B422CF15291529A829EEF608EFF61529E9
:1026F0001529A82922EF24F8FEC8EEC87401082283
:10270000C8EFC8740108221227C87F1E1220C47B9C
:10271000FF7A2979BC02228F438901758CF8758A6A
:10272000CDD28CD2A9D2AF227F1A1220C47BFF7ADD
:102730002879EC02228F43C12043C11043C10843D2
:10274000C106227BFF7A2879CE12228F0227C0127F
:1027500027A77BFF7A29799602228F1227AD7BFF6C
:102760007A2979A902228F9000677402F0D28D80B5
:10277000FED281D2847F0B0220C41227C8E49008C5
:10278000A3F0227BFF7A2879FF02228F7F1D7EB77C
:10279000DEFEDFFC221227AD4387020227D5122777
:1027A000AD4387010227D543BB800227D553BB7FAA
:1027B0000227D57F0C0225D45387DF3275C76022EC
:1027C00075C7202243C1102253C1DF22B28122B239
:1027D0008422B281220000222353415500CAE4C85A
:1027E000EBB5C4CABEDD2CB3ACB3F6BDD3CAD5B706
:1027F000B6CEA70A00C7EBD7A2D2E22CCAE4C8EB38
:10280000B3F6CFD6D2ECB3A30A00BCB4BDABD6D8D6
:10281000C6F4CFB5CDB30A00D2D1C1ACD0F8D4CB79
:10282000D0D03A2000CCEC2000CAB12000B7D6208E
:1028300000C3EB00CFB5CDB3B0E6B1BE3A4E657282
:10284000766552544F532000CFB5CDB3C4DAB2BF32
:10285000B0E6B1BE3A4E6572766552544F532000D1
:102860002E5354433841384B36345334413132407F
:1028700032322E313138344D487A0A00BFAAB7A21D
:102880003AC2F3CCD8CAB5D1E9CAD20A00B2FAC664
:10289000B749443A2000C9E8B1B849443A2000CFCA
:1028A000B5CDB3D7B4CCAC3A00BADCB2EE00BDCFF4
:1028B000B2EE00BBB9D0D000BDCFBAC300BADCBA0B
:1028C000C30033C3EBBAF3D6D8C6F4210A00BCB4B4
:1028D000BDABD6D8C6F4210A00D2D1B4F2BFAACF7C
:1028E000B5CDB3BCE0CAD3C6F7210A00D2D1B9D85E
:1028F000B1D5CFB5CDB3BCE0CAD3C6F7210A00CA63
:10290000E4C8EBB5C4CFB5CDB3C3FCC1EEB2BBB424
:10291000E6D4DA210A00D2D1B9D8B1D5C8CECEF1E9
:10292000CFB5CDB3210A00B4AEBFDAB5C8B9A6C4DD
:10293000DCA3ACCEDEB7A8D4CBD0D021210A00B620
:10294000CFB5E7BBD6B8B4210A00BCB4BDABBDF867
:10295000C8EBBFD5CFD0C4A3CABD210A00D2D1B421
:10296000D3BFD5CFD0C4A3CABDBBD6B8B4210A004B
:10297000BCB4BDABBDF8C8EBB5F4B5E7C4A3CABDE4
:10298000210A00D2D1B4D3B5F4B5E7C4A3CABDBB04
:10299000D6B8B4210A00D2D1BDF8C8EBB5CDB9A6DE
:1029A000BAC4C4A3CABD210A00D2D1BDF8C8EBB8CD
:1029B000DFB9A6BAC4C4A3CABD210A00D2D1B9D80E
:1029C000B1D5BFB4C3C5B9B7210A00D2D1BFAAC619
:1029D000F4BFB4C3C5B9B7210A00D2D1C6F4B6AFAB
:1029E000D3A6D3C33A00D3C3BBA7B4AEBFDAC4A344
:1029F000CABD0A00CFB5CDB3B4AEBFDAC4A3CABD59
:102A00000A005441534B2049443A200053797374CF
:102A1000656D54696D653A20005541525420434D0F
:102A2000442048656C703A200A2D2D2D2D2D2D2D1A
:102A30002D2D2D2D2D2D0A002D2D2D2D2D2D2D2D16
:102A40002D2D2D2D2D0A00CFB5CDB3B8BAD4D83A3F
:102A5000007CC8CECEF1D5BCD3C3C1BF3A007CBF89
:102A6000B4C3C5B9B7D7B4CCAC3A00BFAAC6F4005A
:102A7000B9D8B1D5007CCFB5CDB3CAB1BCE4CAB129
:102A8000BCE4B4C13A000A004F55203320525354DD
:102A90002031204953502032204F465420372050B7
:102AA0004849203131204F4657203132204F50576E
:102AB000203133204F505420313420515453203191
:102AC0003520515354203136205152542031372073
:102AD000505044203920494E464F2034204F505406
:102AE000552035204F4654552036205049444C201F
:102AF0003820504C4F572031302048454C50203121
:102B000038004E657276652052544F5320537563DA
:102B100063657373205374617274210A004E657289
:102B200076652052544F532046616C69205374617E
:052B30007274210A008F
:00000001FF
